:020000040800F2
:10000000480B0020A901000857250008B12300086B
:100010005525000873130008952B00080000000008
:10002000000000000000000000000000B52A0008E9
:10003000791600080000000089290008312B00080B
:10004000C3010008C3010008C3010008C301000880
:10005000C3010008C3010008C3010008C301000870
:10006000C3010008C3010008C3010008C301000860
:10007000C3010008C3010008C3010008C301000850
:10008000C3010008C3010008C3010008C301000840
:10009000C3010008C3010008C3010008C301000830
:1000A000C3010008C3010008C3010008C301000820
:1000B000C3010008C3010008C3010008C301000810
:1000C000C3010008C3010008C30100088D2900080E
:1000D000C3010008C3010008C3010008C3010008F0
:1000E000C3010008C3010008C301000800F002F8C2
:1000F00000F04AF80AA090E8000C82448344AAF178
:100100000107DA4501D100F03FF8AFF2090EBAE875
:100110000F0013F0010F18BFFB1A43F0010318473B
:10012000D04D0000F04D0000103A24BF78C878C1CF
:10013000FAD8520724BF30C830C144BF04680C60ED
:10014000704700000023002400250026103A28BF35
:1001500078C1FBD8520728BF30C148BF0B60704739
:10016000662902F0E786642900F05280002070477B
:100170001FB500F0C1FB04000020002102F0A8FD23
:10018000E0601FBD10B510BD00F0B6FC1146FFF7D2
:10019000EFFF02F051FD00F0D4FC03B4FFF7F2FFD3
:1001A00003BC00F017FD00000948804709480047DC
:1001B000FEE7FEE7FEE7FEE7FEE7FEE7FEE7FEE717
:1001C000FEE7FEE704480549054A064B7047000074
:1001D000932B0008ED00000848050020480B002084
:1001E00048070020480700200FB41CB5074B06AA9B
:1001F0007B4469460090059800F065FB0020694645
:1002000000F074FB1CBC5DF814FB0000F906000054
:100210002DE9F0410646002410687529314616A5DF
:1002200010D0AFF30080002802DA404213A507E0A7
:1002300031688A0701D512A502E0490704D511A546
:10024000012401E0AFF3008000210A2206F1240717
:1002500009E0B0FBF2FCB0FBF2F302FB1C00303013
:1002600078541846491C0028F3D123462A463046C4
:10027000BDE8F04100F0B9B8000000002D0000001A
:100280002B000000200000002DE9F0474FF0000A8D
:1002900089460446C0F820A02046E1688847002827
:1002A00076D0252806D0D4E901219047206A401C49
:1002B0002062F1E7E168204600258847C4F81CA0C9
:1002C00006460027C4F818A02A2E09D0304602F0AE
:1002D00086FC38B304EB8708303EC8F8186019E094
:1002E00059F8041B204604EB87029161E1688847B6
:1002F000012F064618D1E069002820DA25F02005F4
:100300001DE0D8F8180000EB800006EB4000303804
:10031000C8F818002046E1688847064602F05FFCEE
:100320000028EED1012F0AD02E2E08D12046E168F8
:1003300088477F1C0646022F45F02005C4DBA069D4
:10034000002803DA404245F00105A061E80701D02A
:1003500025F01005B6B1A6F14100192802D82036C3
:1003600045F400654A463146204625604D46FFF774
:10037000F7FE58B1012806D0ED1D25F0070000F169
:10038000080989E704E005F1040985E730468AE7B2
:10039000206ABDE8F0874FF0000200B5134694468E
:1003A0009646203922BFA0E80C50A0E80C50B1F1CD
:1003B0002001BFF4F7AF090728BFA0E80C5048BFE1
:1003C0000CC05DF804EB890028BF40F8042B08BF7F
:1003D000704748BF20F8022B11F0804F18BF00F87B
:1003E000012B70477047704770472DE9F0470D4665
:1003F00099469246044600F124080168880604D50F
:10040000E06921F01001216000E00120A84201DD37
:10041000471B00E00027A1697A1902EB0900081ABE
:10042000A0612078C00602D42046AFF300800026E9
:1004300008E0D4E901211AF806009047206A401C20
:10044000761C20624E45F4DB2078C0060AD5204693
:10045000AFF3008006E0D4E9012130209047206A04
:10046000401C2062381EA7F10107F4DC07E0D4E944
:10047000012118F805009047206A401C2062281EC0
:10048000A5F10105F3DC2046AFF3008020780006DB
:1004900002D50220BDE8F0870120FBE770472DE977
:1004A000FF4F0C461E464FF0FF378BB0D2E90001DC
:1004B000DDF860800A908A46C1F30A5505B93D46C9
:1004C000002108464FF00000BAF1000F00F4400090
:1004D00005DA00EB80004FF4400101EA50004FEADA
:1004E0009059B9F1010F00DDB9460A9850EA4A0067
:1004F0000ED044F61050A5F2FF3545432F14B8F145
:10050000000F1ED07542291E1EDDC9F100021CE03D
:10051000B8F1010F4FF0000001D0302103E0F243A9
:1005200005E02154401CB042FBDB30460022002194
:1005300021540B99C1F80880C1E900200FB0BDE833
:10054000F08FBD1B6D1CDEE74A4600DA694206A843
:1005500000F05CFA06AB93E8070003AB83E8070002
:1005600050460A9900F03DFB8DE80700A0F50050C9
:100570001F3800900398002D0ADD42F21F014A4601
:100580000844002303A90390684600F0A6FD09E093
:10059000A0F500504A461F38002303A9039068467F
:1005A00000F0B0FD8DE807000004000C03D04FF010
:1005B000FF30410800E01046B8F1000F03D00022E0
:1005C000009215461EE0751E05D400F099F93032F0
:1005D00062556D1EF9D5B3460122084302D00022B0
:1005E0007F1C04E02078302801D100227F1E002AE1
:1005F000099784D01DE0112D07DA00F081F930321F
:1006000062556D1C50EA0102F5D1084302D00098F2
:10061000C8B10EE00021681E05E0235C625C6354F3
:100620002254401E491C8142F7DBAB46A81B401EEA
:100630000990002004F80B000B98099AC0F8088074
:10064000C0E9002B7AE711264FF0000857E72DE9A3
:10065000F04F88460446D21D22F0070191B0D1E93F
:100660000001CDE90A0102F096FA02460B98C00F8C
:1006700001D02D2007E02068810701D52B2002E062
:10068000202101EAC000032A099001D0072A05DBD6
:1006900003464146204600F079F90BE120788006B8
:1006A00001D5E06900E00620B8F1650F814606D06B
:1006B000B8F1660F18D0B8F1670F70D131E00020A3
:1006C000B9F1110F009001DB112301E009F10103E1
:1006D0000AAA01A90CA8FFF7E2FEDDE90C700026CA
:1006E00009F10105834647E001204B4600904FF099
:1006F00000470AAA01A90CA8FFF7D1FEDDE90DB059
:100700000C995D46002610B909F101000D18B9EBEE
:10071000050003D4C0F1FF3609F10105A5EB09007E
:100720002BE0B9F1010F01DA4FF001090020B9F116
:10073000110F0090484601DD112300E003460AAA8C
:1007400001A90CA8FFF7ABFEDDE90C704D460026B1
:100750008346207800070AD4AB4500DA5D4601A83D
:10076000012D04DD411911F8011C302907D04F4536
:1007700002DA17F1040F04DA012082460FE06D1E41
:10078000EEE7002F02DCED1B3E4403E0781CA8429C
:1007900000DD7D1CB81B00F1010A4FF000472078F6
:1007A000000703D4AA4501DB4FF0FF3A0021B7F15F
:1007B000004F0DF143088DF8431024D002202B2365
:1007C000002F01DA7F422D230A21021EA0F1010031
:1007D00000DC5FB197FBF1FC97FBF1F201FB1C7CA5
:1007E00017460CF1300C08F801CDEEE7A8F1010036
:1007F00003702188090501D5452100E06521A0F19C
:10080000010800F8011C09980FA9A1EB0807FF1DBA
:1008100000B10120411901EBEA70A1693844081ABE
:10082000401EA0612078C00602D42046AFF30080AD
:10083000099828B1D4E901219047206A401C206220
:100840002078C00622D52046AFF300801EE0002E9F
:1008500004DBB34502DD01A8805D00E03020D4E96F
:1008600001219047206A401C2062761CAAF10100F9
:100870005FEA000A0AD100F03FF8C0680168405CF6
:10088000D4E901219047206A401C2062281EA5F16E
:100890000105DCDC07E0D4E9012118F8010B9047E1
:1008A000206A401C2062381EA7F10107F3DC2046B5
:1008B000AFF30080032011B041E6000001694A1C3B
:1008C00002610878704700B58FB0CDE90131002191
:1008D000059105497944CDE9031011466846FFF7B3
:1008E000D3FC0FB000BD0000E5FFFFFF0A6802F86F
:1008F000010B0A607047000000487047080500209F
:1009000030B5B0F10A024FEA900E71F100034EEAE1
:10091000817EB0EB0E0061EB91014FEA101E4EEAB2
:10092000017E10EB0E0041EB11114FEA102E4EEA42
:10093000016E10EB0E0041EB11214FEA104E4EEA12
:10094000014E10EB0E0041EB1141401841F1000146
:100950004FEAD00040EA41704FEAD10110EB800528
:100960004FEA810444EA907444EB01046D1944EBAE
:100970000404521BA3414FF0000348BF0A3200D5C4
:1009800030BD401C41F1000130BD00002DE9F041B7
:100990001F46044603260168072A01F4006004DBB1
:1009A00008B116A505E016A503E008B115A500E0FD
:1009B00015A521F010002060A069C01EA0610FB134
:1009C000401EA0612046AFF300804FB1D4E9012161
:1009D00038469047206A401C2062C01C206206E016
:1009E000206AFAE7D4E9012115F8010B9047761E39
:1009F000F8D22046AFF30080BDE8F0814E414E00B2
:100A00006E616E00494E4600696E66002DE9F04742
:100A1000814616468AB0354878440DC88DE80D00E9
:100A200032487844801C03AC0DC884E80D0041F6C0
:100A30009B300844372190FBF1F290FBF1F5A5F1D2
:100A4000800501FB12041B3C02D56442012000E03A
:100A50000020DFF898A080460027FA44AAF1BE0AD9
:100A60000EE0E0070AD03246684607EB4701012353
:100A70000AEB810100F046FB8DE8070064107F1C43
:100A8000002CEED1194F7F44AE3F19E0E80715D096
:100A900007EB04100DF1180A90E80E008AE80E002A
:100AA000C068F04201D1981908903246012306A986
:100AB00003A800F027FB03AB83E807006D10641C5C
:100AC000002DE3D14FF0010332466946B8F1000F23
:100AD00003A802D000F001FB01E000F013FBC9E91C
:100AE0000001C9F808200AB0BDE8F087BC44000046
:100AF00000487047E80400207546FFF7F9FFAE464E
:100B000005006946534620F00700854618B020B519
:100B1000FFF758FBBDE820404FF000064FF00007FC
:100B20004FF000084FF0000B21F00701AC46ACE895
:100B3000C009ACE8C009ACE8C009ACE8C0098D4602
:100B4000704710B50446AFF300802046BDE8104062
:100B5000FFF723BB4FF0013C50F8042B51F8043B46
:100B60009A4221D1A2EB0C03934313EACC1317D181
:100B700050F8042B51F8043B9A4215D1A2EB0C0318
:100B8000934313EACC130BD150F8042B51F8043BD8
:100B90009A4209D1A2EB0C03934313EACC13DBD0A6
:100BA0004FF00000704700BFD01A01BAB1FA81F1CE
:100BB00001F0180122FA01F0CB40C1F12001DBB2B3
:100BC000C0B2C01A2CFA01F3D11A914311EAC31131
:100BD000E6D1704701491820ABBEFEE726000200AF
:100BE00070475FEA400C08BF91F0000F4FEA8C237A
:100BF0004FEAC12243EA51514FEA1C5018BF00F599
:100C0000F0404FEA300018BF41F000415FEA6C5CF1
:100C100000F02980BCF1FF3F08BF40F080407047E2
:100C2000130C06BF12044FF0100C4FF0000C130E03
:100C300004BF12020CF1080C130F04BF12010CF1D7
:100C4000040C930F04BF92000CF1020CD30F04BFED
:100C500052000CF1010C11464FF00002A0F11F00F0
:100C6000A0EB0C00704711F0004F08BF704731F047
:100C700000413FF4D5AF0B0C06BF09044FF0100C38
:100C80004FF0000C0B0E04BF09020CF1080C0B0F07
:100C900004BF09010CF1040C8B0F04BF89000CF197
:100CA000020CCB0F04BF49000CF1010CCCF1200366
:100CB000A0EB0C0022FA03F302FA0CF241EA030162
:100CC00000F10100704720F07F4C80EA030023F020
:100CD0007F47ACEB070303F57C5300F0004003F1C2
:100CE000FF032DE980494FEA154B09B44FEA14433D
:100CF00025EA0B4E24EA03480FF2042606EB1327DD
:100D000049083E785FEA320203FB0667C7F5000731
:100D100007FB06F64FEA54374FEAD64606F10206BD
:100D200007FB066CCCF1005C4FEA1C472CEA074C31
:100D300007FB06F40CFB06F504EB15464FEA961686
:100D400034BF00204FF000404FEAD13706FB07FCCC
:100D50004FEA1C4C0CFB0BF7D21B03FB0CF761EBAF
:100D600007010CFB0EF7B0EB074072EB17420CFBD0
:100D700008F734BFA2EB0742B2EB074261EB174121
:100D80004FEA0C444FEA910706FB07FC4FEA1C4C64
:100D90000CFB0BF7B0EBC74072EB573203FB0CF7C1
:100DA00034BFA2EBC742B2EBC74261EB57310CFB39
:100DB0000EF7B0EBC70072EB57720CFB08F734BFAD
:100DC000A2EBC702B2EBC70261EB5771039F4FEA78
:100DD000816141EA921104EBCC044FEAD1374FEA2A
:100DE000826206FB07FC42EA90124FEA80604FEAFB
:100DF0001C4C0CFB0BF7D21B03FB0CF761EB070140
:100E00000CFB0EF7B0EB074072EB17420CFB08F738
:100E100034BFA2EB0742B2EB074261EB17414FEA46
:100E20008C554FEA910704EB9C2406FB07FC4FEA24
:100E30001C4C0CFB0BF7B0EBC74072EB573203FBBB
:100E40000CF734BFA2EBC742B2EBC74261EB57319C
:100E50000CFB0EF7B0EBC70072EB57720CFB08F7F8
:100E600034BFA2EBC702B2EBC70261EB577115EBBF
:100E70004C254FEA816141EA92114FEA82624FEAC2
:100E8000D13742EA901206FB07FC44F100044FEA16
:100E900080604FEA1C4C0CFB0BF7D21B03FB0CF7DA
:100EA00061EB07010CFB0EF7B0EB074072EB17424A
:100EB0000CFB08F734BFA2EB0742B2EB074261EB31
:100EC000174115EB1C154FEA813141EA92414FEA77
:100ED000823242EA90424FEA80304FEA0C7644F187
:100EE000000448EA03434EEA0B484FF0000EB2EB11
:100EF000080C71EB030724BF624639464EEB0E0E19
:100F00004FF0000B0018524149414BEB0B0BB2EB79
:100F1000080C71EB03077BF1000B24BF62463946D6
:100F20004EEB0E0E4FF0000B0018524149414BEBB7
:100F30000B0BB2EB080C71EB03077BF1000B24BF2A
:100F4000624639464EEB0E0E51EA020718BF46F0D4
:100F5000010616EB0E7655F1000254F1000103D59F
:100F6000BDE88901BDE80088BDE88901BDE8004809
:100F7000B619524141EB0101A3F101037047808092
:100F80007F7E7D7C7B7A79787776767574737271E3
:100F900071706F6E6E6D6C6C6B6A6A69686867669B
:100FA00066656464636362616160605F5F5E5E5D2D
:100FB0005D5C5C5B5B5A5A595958585757565655A1
:100FC00055555454535352525251515050504F4F03
:100FD0004F4E4E4D4D4D4C4C4C4B4B4B4A4A4A4953
:100FE0004949484848474747474646464545454496
:100FF0004444444343434342424242414141002B23
:101000009C4630D477002BD01CB54FEA370703B489
:101010004FF010004FF01001BAF1000F06D0BCF1F4
:10102000000FDCBF40F0080040F008014FF0000066
:101030000FBCBDE810400BF1010BBBF1010F08BF65
:101040005FEA170722BF12F1010211F101014FF00F
:10105000004143F1000300F0004043EA0000704704
:10106000F9D35708D0E746EA064613F1400F4FEA96
:1010700016461FDD13F1200FDFBF16430A4600217D
:1010800020335B42BED0C3F1200746EA064602FA8F
:1010900007F74FEA164646EA0706C3F1200722FA89
:1010A00003F201FA07F721FA03F14FF0000342EAD5
:1010B0000702A7E746EA020646EA06464FEA164650
:1010C00046EA0106BCBF46EA0646360C4FF000036E
:1010D0004FF000024FF0000194E72DE9804C9A4652
:1010E000934670B491E8380007C831EA400C48BF15
:1010F00034EA430C03D5FFF7E6FDFFF780FFF0BCB1
:10110000BDE8008C2DE9804C9A46934670B491E876
:10111000380007C810F0804F08BF13F0804F03D18C
:1011200000F005F8FFF76BFFF0BCBDE8008C20F085
:101130007F4780EA030023F07F4C07EB0C03A3F505
:101140007C5300F00040A3F1FE0392F0000F00F08A
:10115000B38095F0000F00F077802DE901494FEA48
:1011600011404FEA144621EA004800FB06FC24EA3D
:10117000064708FB06F607FB08F800FB07F718EB25
:1011800006484CEB164C4FEA124B18EB07484FEA57
:1011900015464CEB174022EA0B4E0BFB06FC25EAEA
:1011A00006470EFB06F607FB0EFE0BFB07F71EEBD2
:1011B000064E4CEB164C4FF000061EEB074E4CEB68
:1011C000174B18EB0B0840F1000018EB0E0B58EB17
:1011D000000840F100008F1A4FF000013CBFC943E6
:1011E000661B14BFB5EB040C00213CBFC943F61BC2
:1011F0004FEA17444EEA8E0E27EA04454FEA1C4791
:1012000004FB07622CEA074C05FB07F70CFB05F60D
:1012100004FB0CFC16EB074642EB174216EB0C46A0
:1012200042EB1C421BEB060658EB0202414146EA28
:101230009E0601D5BDE80189B619524141EB010175
:10124000A3F10103BDE801894FEA14454FEA1147B4
:1012500024EA054621EA074C05FB07F406FB07F7DD
:101260000CFB06F105FB0CFC11EB074144EB1744AA
:101270004FEA124711EB0C4144EB1C4422EA074CA5
:1012800005FB07F206FB07F70CFB06F605FB0CFC5B
:1012900016EB074642EB174216EB0C4642EB1C4599
:1012A0006A1854F1000148BF7047B619524141EB2A
:1012B0000101A3F10103704795F0000F37D04FEA09
:1012C00011424FEA144721EA024624EA074C02FB86
:1012D00007F106FB07F70CFB06F402FB0CFC14EB12
:1012E000074441EB17414FEA154714EB0C4441EB1F
:1012F0001C4125EA074C02FB07F506FB07F70CFB30
:1013000006F602FB0CFC16EB074645EB174516EB01
:101310000C4645EB1C42121951F1000148BF7047C1
:10132000B619524141EB0101A3F1010370474FEAA5
:1013300014454FEA114724EA054621EA074C05FB0C
:1013400007F106FB07F70CFB06F24FF0000605FB62
:101350000CFC12EB074241EB174112EB0C4251EB34
:101360001C4148BF7047921841EB0101A3F10103F2
:101370007047FEE770B5002401F09EFB4FF48075C6
:10138000124E04E0641CE4B2012001F02FFC294657
:10139000304600F0F3FA10B1642CF3D30FE0642C64
:1013A0000DD2002404E0641CE4B2012001F01EFC14
:1013B0002946304600F0E2FA18B1F02C04D301209F
:1013C00070BDF02CEFD3FAE7002070BD000C014097
:1013D00010B5044600F010FC0349B0FBF1F1614385
:1013E000491EFDD210BD000000093D0010B52820A7
:1013F000FFF7EEFF4FF40071034800F0BFFA08B1A9
:10140000002010BD012010BD000C01401FB50A4B8B
:101410004FF40072012120B100200092CDE90101BA
:1014200004E00320CDE90021CDE902106946184609
:1014300000F0B4F91FBD0000000C014070B50D4D67
:101440004FF400742146284600F098FA0028F9D09D
:101450002820FFF7BDFF2146284600F08FFA00281C
:1014600006D02146284600F089FA0028F9D101204B
:1014700070BD0000000C014070B5002425466006D8
:10148000040EFFF7DBFF08B144F001046D1CEDB260
:10149000082DF4D3204670BD30B58FB0202104A8AC
:1014A000FEF779FF00200290039000F04FF8FFF75D
:1014B0009DFFC8B31F4D4FF400742146284600F02D
:1014C0005DFA0028F9D02146284600F057FA002896
:1014D000F9D100240DF10805FFF7CEFF2855641C53
:1014E000E4B2052CF8D39DF808209DF809309DF84A
:1014F0000A109DF80B00D4180D182C449DF80C50C0
:10150000AC4212D1CDE900100BA104A8FEF76CFE8D
:101510000120102304AA0146009001F089F901F08E
:10152000EFF801200FB030BD01E00020FAE7022003
:10153000F8E70000000C014025642E2564252552A3
:10154000482025642E2564430000000010B50020CB
:10155000FFF75CFF00224FF40071054800F013FA1A
:10156000142000F009F9BDE810400120FFF74EBF3C
:10157000000C014010B500F033F8BDE81040FFF753
:10158000F9BE00002DE9F041002635464FF4807782
:10159000DFF8488001F0AEFA002239464446404662
:1015A00000F0F1F90A2001F021FB01F085FA39463B
:1015B000204600F0E3F901280DD000242D2001F091
:1015C00015FBAC4034436D1CEDB2E6B2082DE1D3FF
:1015D0003046BDE8F0810124F0E70000000C014036
:1015E00070B501F087FA0B4D4FF48074002221464C
:1015F000284600F0C8F940F2EE2001F0F7FA012287
:101600002146284600F0BFF9BDE870400F2001F0E8
:10161000EDBA0000000C01402DE9F041054601F053
:1016200069FA0124134F260225424FF00002314689
:1016300038460BD100F0A7F9462001F0D7FA012275
:101640003146384600F09FF902200AE000F09BF98D
:10165000092001F0CBFA01223146384600F093F917
:10166000372001F0C3FA600010F0FF04DCD1BDE8C0
:10167000F0810000000C0140704772B6FEE710B523
:10168000FFF7AEFFFFF776FECC20FFF7C5FF442043
:10169000FFF7C2FF4FF4AF7001F0A8FAFFF7A0FF09
:1016A000FFF768FECC20FFF7B7FFBE20FFF7B4FFBF
:1016B000FFF768FF0446FFF765FF000201B251EA39
:1016C00004006FF0030401D5C043401C01F050FB3F
:1016D000224601F063FCBDE8104001F00FBB0000A2
:1016E00010B590F821100024022903D00421816351
:1016F00001243DE001680A6822F00E020A600168D8
:101700000A6822F001020A601A4A0168914201D176
:10171000012121E0174A1432914201D110211BE02E
:10172000144A2832914201D1891515E0114A3C3200
:10173000914201D189140FE00E4A5032914202D1F8
:101740004FF4803108E00B4A6432914202D14FF4E9
:10175000801101E04FF08071064A083A5160012182
:1017600080F82110002180F82010416B01B18847DA
:10177000204610BD0800024070B5044600F008F98C
:101780000546601C02D004480078044400F000F9CB
:10179000401BA042FAD370BD000000202DE9F84F95
:1017A000DFF8B8910024A9F1040B23460F2709F1B3
:1017B000040AABF1040EC9E00125A5402A40AA4263
:1017C0007DD1674ED1F804C0ACEB0608B44532D0E9
:1017D00014DCBCF1030F3AD009DCBCF1000F2AD0B5
:1017E000BCF1010F1CD0BCF1020F31D11DE0BCF1E6
:1017F000110F17D0BCF1120F2AD119E0B8F5881FCC
:1018000019D006DCB8F5803F15D0B8F5801F1FD180
:1018100011E0B8F5001F0ED0B8F5041F18D10AE08A
:10182000CB6815E0CB681B1D12E0CB6808330FE0D6
:10183000CB680C330CE08B682BB1012B4FF0080305
:1018400003D0456104E0042302E0056100E00023C9
:10185000FF2A01D8064601E000F104064FEA84059C
:1018600001D9A5F12005D6F8008007FA05FC28EA81
:101870000C0803FA05F548EA0508C6F800804D682B
:10188000ED0062D5374DAE6946F00106AE61AD6937
:1018900024F0030605F001050095334D06EB050C19
:1018A000DCF80850A607360F07FA06F825EA0805FF
:1018B000DFF8B880404503D14FF0000817E044E05E
:1018C000DFF8AC80404502D14FF001080FE0DFF8AF
:1018D000A480404502D14FF0020808E0DFF898806C
:1018E000404502D14FF0030801E04FF0040808FA28
:1018F00006F848EA0508CCF808804D68D9F8006079
:10190000ED024D4601D5164300E096432E604D682A
:10191000DAF80060AD02554601D5164300E0964363
:101920002E604D68DBF80060AD035D4601D51643BF
:1019300000E096432E604D68DEF80060ED037546CA
:1019400001D5164300E096432E60641C0D682A46BC
:10195000E5407FF431AFBDE8F88F00000804014096
:10196000000011100010024000000140000801407A
:10197000000C014000100140001401408068084044
:1019800000D0012070470AB1016170470904FBE7EC
:10199000014880687047000000000020024881680C
:1019A000027811448160704700000020074810B59C
:1019B000016841F010010160032000F075F80F206C
:1019C00000F006F800F024F8002010BD00200240CE
:1019D00070B50D4D04464FF47A712878B1FBF0F0E4
:1019E0000A490968B1FBF0F000F0CEFC48B9102CB0
:1019F00007D200222146501E00F036F800206C600D
:101A000070BD012070BD0000000000200C0000200F
:101A10000C4808B5816941F001018161816901F0DB
:101A200001010091C16941F08051C161C06900F0BC
:101A3000805000900448416821F0E06141F000715D
:101A4000416008BD0010024000000140002809DB91
:101A500000F01F02012191404009800000F1E020C8
:101A6000C0F8001170470000F0B40E4B1B680C4624
:101A7000C3F30223C3F10705042D00D90425191D62
:101A8000072901D2002300E0DB1E012606FA05F13A
:101A9000491E214099409E40761E16403143F0BCBD
:101AA00001F08DB80CED00E0064900F0070208686F
:101AB0004FF6FF03184040EA0220034A1043086033
:101AC000704700000CED00E00000FA052DE9F0473A
:101AD0000F46050061D0434E306800F00700B84261
:101AE00009D2306820F0070038433060306800F0D9
:101AF0000700B84251D128683B4C810712D54007F6
:101B000003D5606840F4E06060602878000703D582
:101B1000606840F4605060606068A96820F0F00080
:101B2000084360602878C00728D06868012810D072
:101B30002168022810D0890700292EDA616821F077
:101B4000030101436160FFF723FF804641F28839BA
:101B50000DE021688903EFE78901EDE7FFF718FF42
:101B6000A0EB0801494502D90320BDE8F087606871
:101B7000696800F00C00B0EB810FEFD1306800F025
:101B80000700B8420BD9306820F0070038433060B6
:101B9000306800F00700B84201D00120E5E728785E
:101BA000400705D56068E96820F4E060084360609C
:101BB0002878000706D56068296920F4605040EA5B
:101BC000C100606000F01EF86168084AC1F30311AB
:101BD000515CC8400649086006480068FFF7F8FEF7
:101BE0000020C2E700200240001002403A30000806
:101BF0000C0000200400002001480068704700002D
:101C00000C0000200E4A51680E4801F00C03042B12
:101C100011D0082B0FD10C48C1F38343C903C05C1A
:101C20000AD55168084AC1F34041921E515C054AE9
:101C30005043B0FBF1F0704704494843704700003F
:101C40000010024000127A002A30000800093D000E
:101C50002DE9F84F040070D02078C04DC00749D05E
:101C60006868C0F38100012807D06868C0F381006C
:101C7000022809D16868C00306D52868800339D5D1
:101C800060680028E7D035E06068B0F5803F0BD091
:101C900010B1B0F5A02F11D0286820F48030286052
:101CA000286820F4802002E0286840F48030286012
:101CB000606890B1FFF76CFE06460AE0286840F4C1
:101CC00080202860F0E700BFFFF762FE801B6428D9
:101CD00073D828688003F7D50CE0FFF759FE064655
:101CE00005E000BFFFF754FE801B6428F0D8286889
:101CF0008003F7D420789A4E80074FF001094FF007
:101D0000000839D5686810F00C0F07D06868C0F378
:101D10008100022809D16868C00306D428688007BA
:101D200014D52069012808D110E02069B0B1C6F8A7
:101D30000090FFF72DFE074605E00AE1FFF728FEB9
:101D4000C01B0228C4D828688007F7D528686169B5
:101D500020F0F80040EAC10028600DE0C6F80080DD
:101D6000FFF716FE074604E0FFF712FEC01B02282D
:101D700023D828688007F7D4207800072CD5794825
:101D8000A169D9B1C0F80090FFF702FE074604E050
:101D9000FFF7FEFDC01B02280FD8686A8007F7D541
:101DA00071484FF4FA510068B0FBF1F0009000BFA9
:101DB0000098411E0091FAD20EE080E0C0F8008049
:101DC000FFF7E6FD074604E0FFF7E2FDC01B02282F
:101DD00075D8686A8007F7D42078400760D5E8692D
:101DE0000027C00008D4E86940F08050E861E86945
:101DF000012700F0805000905C480168C90513D4A9
:101E00000168834641F480710160FFF7C1FD82469D
:101E100006E000BFFFF7BCFDA0EB0A0064284ED827
:101E2000DBF80000C005F5D5E06801280AD008B14C
:101E3000052813D0286A20F001002862286A20F0C3
:101E4000040002E0286A40F001002862E06841F2E4
:101E5000883B98B1FFF79CFD82460BE0286A40F072
:101E600004002862EEE700BFFFF792FDA0EB0A0135
:101E700059455AD8286A8007F6D50CE0FFF788FD47
:101E8000824605E0FFF784FDA0EB0A0159454CD8D6
:101E9000286A8007F6D41FB1E86920F08050E86115
:101EA000E06988B36968C1F38101022944D002283E
:101EB000C6F8608004D0FFF76BFD044638E034E0DC
:101EC000FFF766FD074604E0FFF762FDC01B02282E
:101ED0002BD828688001F7D4206AB0F5803F05D15F
:101EE0006868A16820F4003008436860D4E90801FC
:101EF0000843696821F4741108436860C6F860906B
:101F0000FFF746FD044606E025E000BFFFF740FD71
:101F1000001B022809D828688001F7D51BE000BF04
:101F2000FFF736FD001B022802D90320BDE8F88F19
:101F300028688001F4D40EE00128F7D06868226A8E
:101F400000F48031914204D1616A00F4701088423B
:101F500001D00120EAE70020E8E70000001002407D
:101F600000004242800442420C0000200070004009
:101F70007047000038B50446006842688168C9436C
:101F80004B0606D5CB0704D1D3435B0601D4216CA5
:101F900005E08B0708D4D3431B0605D4616C01B060
:101FA0002046BDE8304008478B0601D54B0646D495
:101FB000D3439B0643D44B060AD494F85130032BE9
:101FC0003ED0636D43F004036365C3688368009388
:101FD000890609D4616D41F0010161658168009154
:101FE000016821F040010160606D002827D0206861
:101FF000416821F0E0014160012084F85100900720
:1020000022D02068416821F003014160104DE06C4E
:1020100040B14563E06CFFF763FB18B1606D40F0C1
:1020200040006065A06C002809D04563A06CFFF7F4
:1020300057FB002803D0606D40F04000606538BD5C
:10204000C1688068009038BD2046FFF791FF38BD19
:10205000B929000870B5040009D0606A002540B1B4
:1020600025616561A56294F8510040B10CE0012042
:1020700070BD6068B0F5827FF4D0E561F2E784F866
:102080005050204600F040F8022084F851002068AB
:10209000016821F040010160A088218900F482706C
:1020A00001F404410843A18901F400610843217C43
:1020B00001F002010843217D01F001010843218B59
:1020C00001F400710843217F01F03801084394F8BE
:1020D000201001F080010843218D01F400510843D4
:1020E00021680860A069042101EA10402168486065
:1020F0002068C16921F40061C1616565012084F82F
:102100005100002070BD000030B585B0002400945F
:1021100001940294039400681B49884232D11B4801
:10212000816941F480518161816901F48051049198
:10213000816941F0080181618069154D00F0080056
:10214000049028200090022001900320039069460B
:102150002846FFF723FB1020CDE9000469462846F6
:102160000294FFF71BFB0B48416841F0E06141F02E
:1021700001014160002211462320FFF775FC232056
:10218000FFF764FC05B030BD003001400010024094
:10219000000C0140000001402DE9FF4F81B01D46B9
:1021A000934604464FF001090E9EFFF7F1FB0746E8
:1021B00094F851006168012806D0B1F5827F3CD1C6
:1021C000A168C9BB042838D10298002871D0BBF19E
:1021D000000FFBD0002DF9D094F8500001282CD02E
:1021E0004FF0010A84F850A094F85100042802D05E
:1021F000052084F851004FF00008C4F85480C4F85A
:1022000038B0E587A58702992163E586A586C4F8DD
:102210004080C4F8448020680168490603D40168FE
:1022200041F040010160E068B0F5006F606808D0DF
:10223000F0B3012D49D081E0FFE7022005B0BDE8F1
:10224000F08F08B1012D39D1206B21680088C8605A
:10225000206B801C2063E08E401EE0862EE020680C
:10226000816889070FD5E18E69B1B9F1010F0AD1F3
:10227000216B0988C160206B801C2063E08E401EAA
:10228000E0864FF0000920688168C9070CD0E18F13
:1022900051B1C068A16B0880A06B801CA063E08F67
:1022A000401EE0874FF00109FFF772FBC01B01E001
:1022B0000BE067E0B04201D3701C50D1E08E0028E3
:1022C000CDD1E08F0028CAD13EE0206B2168007894
:1022D0000873206B401C2063E08E401EE0862DE0DA
:1022E0002068816889070FD5E18E69B1B9F1010FC6
:1022F0000AD1216B09780173206B401C2063E08EAA
:10230000401EE0864FF0000920688168C9070CD0A4
:10231000E18F51B1C068A16B0870A06B401CA06335
:10232000E08F401EE0874FF00109FFF731FBC01B33
:10233000B04202D3701C01D011E086B1E08E0028BB
:10234000CED1E08F0028CBD13A463146204600F06E
:102350003BFB50B12020606584F8508012E084F887
:1023600051A084F85080032068E7A06818B920685D
:10237000C1688068009084F851A084F85080606D36
:102380000028F1D0012059E710B5401EB0F1807F40
:1023900001D3012010BD4FF0E02460610F216017D0
:1023A00000F00DFC0020A06107202061002010BD7E
:1023B000FEE770B50C46054600F008F820EA040177
:1023C0002846BDE8704000F029B8000070B57E21B5
:1023D00001EA40000A4D40F0800400228021284696
:1023E000FFF7D1FA204600F0D7FA002000F0D4FA27
:1023F0000446012280212846FFF7C5FA204670BD19
:10240000000C014070B50C460546FFF7DFFF40EABF
:1024100004012846BDE87040AFF3008070B50E4659
:102420007E2101EA4004094D002280212846FFF761
:10243000AAFA204600F0B0FA304600F0ADFA28467D
:10244000BDE8704001228021FFF79DBA000C0140D9
:102450002DE9F04186B000252948009501950295A7
:102460000395816941F020018161816901F02001BA
:102470000491816941F004018161816901F00401E5
:102480000491816941F00801816180691D4F00F06C
:1024900008000490012273213846FFF774FADFF830
:1024A000688001224FF470714046FFF76CFA0124F6
:1024B0007320CDE900040326CDE90246694638467B
:1024C000FFF76CF9C020CDE900040294694640464C
:1024D0000394FFF763F920028DE831006946404616
:1024E0000394FFF75BF96002CDE90004CDE90246F1
:1024F00069464046FFF752F906B0BDE8F08100009A
:102500000010024000080140000C0140104810B5C6
:102510000E4901604FF48271416000218160C16009
:102520004FF400720161C0E905121822C0E90721C9
:10253000416281620A21C162FFF78CFD002803D04D
:10254000BDE81040FFF799B810BD00000030014011
:1025500010000020FEE7FEE730B40021084B0A46D9
:102560005FF0000003EBC004401CC0B2625480283E
:10257000F8D3491CC9B20829F2D330BC00F0C0B866
:102580006800002030B1012807D100215FF0A700CA
:1025900000F06CB90021A620FAE7704710B558B1D9
:1025A000012810D10021C02000F060F90021A020F6
:1025B000BDE8104000F05AB90021C82000F056F9DB
:1025C0000021A120F4E710BD30B5CC0801F00703CD
:1025D00001259D40EBB2064D05EBC005C808285CFF
:1025E0000AB1184302E063EA0000C043285530BD39
:1025F0006800002010B5414C002210212046FFF752
:10260000C2F9C820FFF7B8F8012210212046FFF7D1
:10261000BAF90021AE2000F029F90021084600F0A7
:1026200025F90021102000F021F90021402000F0C0
:102630001DF90021812000F019F90021CF2000F0C0
:1026400015F90021A12000F011F90021C82000F0A7
:102650000DF90021A62000F009F90021A82000F0C2
:1026600005F900213F2000F001F90021D32000F0FE
:10267000FDF80021084600F0F9F80021D52000F00F
:10268000F5F80021802000F0F1F80021D92000F0B9
:10269000EDF80021F12000F0E9F80021DA2000F047
:1026A000E5F80021122000F0E1F80021DB2000F025
:1026B000DDF80021402000F0D9F80021202000F0B2
:1026C000D5F80021022000F0D1F800218D2000F083
:1026D000CDF80021142000F0C9F80021A42000F05A
:1026E000C5F80021A62000F0C1F8FFF735FF002152
:1026F000BDE81040AF2000F0B9B80000000801406C
:1027000070B5114E002400BF04F1B000C0B200212A
:1027100000F0ACF80021084600F0A8F800211020D5
:1027200000F0A4F85FF0000506EBC5000121005D94
:1027300000F09CF86D1CEDB2802DF5D3641CE4B262
:10274000082CE1D370BD0000680000202DE9FC4F8B
:102750001C460E4682468B460190082B0DD0600722
:1027600000D0012000EBD40061084843C0B281468C
:10277000203AD0B2009000204BE00620F7E7082C6A
:1027800013D00C2C18D0102C1BD0182C44D100982E
:10279000234900EBC00000BF01EB8001002711F8C6
:1027A0000850E80712D00B9A13E000981D4900EB7F
:1027B000400001EB4001F1E700981B4900EB4000AD
:1027C000EAE71A49009801EB0011E7E70B9828B3F4
:1027D000002231465046FFF7F7FE761C7F1C6D083D
:1027E000FFB2F6B2082FDCD30AF1010000F0FF0AB5
:1027F000082C0AD00199AAEB0100B0EB540F04D1C8
:102800000BF108008A4600F0FF0B08F101005E465C
:10281000C0B280464845B2D3BDE8FC8F0122D8E75C
:10282000D63C00084A30000872320008E63600083C
:102830002DE9F8411E46154688460446079F0BE0E1
:102840003346414620460097FFF780FF082E0AD006
:1028500004EB5600C4B26D1C2A78A2F120005E2859
:10286000EED9BDE8F881A41DE4B2F4E770B51A4EC4
:10287000054609B1012200E0002220213046FFF781
:1028800082F8002240213046FFF77DF80024002224
:1028900001213046FFF777F8280601D5012200E034
:1028A000002202213046FFF76EF801221146304621
:1028B000FFF769F86806641C050EE4B2082CE6D33D
:1028C000012240213046FFF75EF83046BDE87040F7
:1028D00001222021FFF757B80008014003211420EE
:1028E000FFF767BD10B51420FFF770FD800705D115
:1028F0000321BDE810401420FFF784BD10BD000087
:1029000010B5204C012240212046FFF73CF8022060
:10291000FEF732FF002240212046FFF734F8022064
:10292000FEF72AFF012240212046FFF72CF8022063
:10293000FEF722FF0F210120FFF770FD0220FEF7B6
:102940001BFF3D211120FFF769FD1E212D20FFF700
:1029500065FD00212C20FFF761FD8D212A20FFF766
:102960005DFD3E212B20FFF759FD40211520FFF78B
:1029700055FDFFF7B3FF0220FEF7FEFEBDE8104055
:10298000FFF7B0BF000C0140704700000148FFF79F
:10299000F1BA00001000002001B582B00A200090BA
:1029A000012301AA02A90348FFF7F6FB9DF80400E2
:1029B0000EBD00001000002010B5406A0021C18744
:1029C000C186FFF7D5FA10BDF8B515460E460B4681
:1029D000009204460122022100F010F840B933466B
:1029E000002280212046009500F008F8002804D03D
:1029F000606D40F0200060650320F8BD2DE9F843CC
:102A00001E46914688460446089DFEF7C1FF401BBE
:102A1000351AFEF7BDFF074625480068C0F3CB30E6
:102A2000684338E0701C37D0FEF7B2FFC01BA842E5
:102A300003D215B1009860B32CE02068416821F002
:102A4000E00141606068B0F5827F0BD1A068B0F50D
:102A5000004F02D0B0F5806F04D12068016821F0EA
:102A600040010160A06AB0F5005F09D120680168EB
:102A700021F4005101602068016841F400510160B7
:102A8000012084F85100002084F850000320BDE8A4
:102A9000F8830025401E00902068816838EA010014
:102AA00004D000214945BDD10020F0E70121F9E71C
:102AB0000C0000207047000000B585B00020019098
:102AC00003900A48816941F0080181618069694683
:102AD00000F0080004904FF48070009001200290F4
:102AE0000348FEF75BFE05B000BD00000010024089
:102AF000000C01400C4800B5816985B041F0080127
:102B000081618069694600F0080004904FF480708C
:102B10000090012001900290022003900348FEF7EC
:102B20003DFE05B000BD000000100240000C014059
:102B3000FEF734BF30B58FB028216846FDF72BFC77
:102B400014210AA8FDF727FC01210804CDE9001093
:102B50000024029402250491CDE907504FF4E010BF
:102B600009906846FFF774F808B172B6FEE70F20C7
:102B7000CDE90A054FF48060CDE90C4002210AA896
:102B80000E94FEF7A3FF002801D072B6FEE70FB047
:102B900030BD7047FEE7490050EAC12018BF04204D
:102BA0004A0D18BF40F0010040F2FF72B2EB515FD6
:102BB00008BF40F00200012808BF05207047090740
:102BC000090E002804DB00F1E02080F800147047B3
:102BD00000F00F0000F1E02080F8141D704730383D
:102BE0000A2801D201207047002070472DE9F041EA
:102BF0004FF0E0240546A769FEF7CAFE064605EB3E
:102C0000C500C500BD420BD9FEF7C2FEB042FBD0E5
:102C10000849781B0844A1698142FCD8BDE8F081CD
:102C20007D1BA069A842F9D9FEF7B2FEB042F8D0E8
:102C3000F4E700004019010008B5FEF7B7FEFFF702
:102C400079FFFFF705FCFFF761FCFFF7D3FC0020DD
:102C5000FFF798FC0020FFF7A1FCFFF77DFCFFF7D2
:102C60004FFEFFF73BFEFFF73DFEFEF783FC01241E
:102C7000FEF712FCFEF703FD024610231E21012081
:102C8000009400F003F8FFF73BFDF1E72DE9FC416C
:102C900007460CA01D46006801900E46089C104691
:102CA00000F0D2F802460B4607A101A8FDF79CFAF6
:102CB0002B4601AA314638460094FFF7B9FDBDE81E
:102CC000FC81000020000000252E303366204300E8
:102CD00010B500290AD00878002807D005487844A4
:102CE000FDF738FF002801D0002010BD02487844CD
:102CF00010BD0000322200002A22000021F0004214
:102D0000A2F16052B2F5801F01F0004328BFD2F15A
:102D10007F6C0BD95FEA001C43EAC20242EB5070A1
:102D200018BF704728BF20F001007047B2F5801F20
:102D3000BCBF184670474FEA410C1CF5001F02D279
:102D4000084600F0F2B870B500F029F800000089DC
:102D5000FFF7F6BF4FF00040A0F58000704700007D
:102D600002494FF0000000F0E7B800BF0000F87F14
:102D700010F0004248BF4042B0FA80F310FA03F16D
:102D80000AD0C3F11D0303F580634FEA415002EB03
:102D9000035202EBD12170474FF0000070470EF153
:102DA000020E2EF0030E5EF8046B364205D4012AA3
:102DB00043EB030515F5001F12D8012841EB010C68
:102DC0001CF5001F0CD80ED14FEAD17C15F5001F61
:102DD0000CEB4C0C0CF1020C08BF4CEBD37C04E068
:102DE0004FF0080C01E04FEAD37C0CEB4C0526FABF
:102DF00005F606F00706B6F1040C06D20EEB860CBB
:102E0000BDE870404CF0010C6047DFE80CF0090BA6
:102E100002024FF000414FF00000A1F5002170BD0B
:102E200019461046012851EB010418BFD4F50014CF
:102E300084BF002001F0004170BD0808A0F500111A
:102E40004FEA31017047000043004FEAD30C4FEACC
:102E50003C0C43401FBF40070CF1605113F0FE4F84
:102E600070471CF0006F03D100200CF00041704748
:102E70000CF0004343EA507010B540EACC0000F07B
:102E80000EF800BF000000924FEA0001FFF7D5BF27
:102E90004FF000414FF00000A1F5002170470EF106
:102EA000020E2EF0030E5EF8044B244204D44FEAC7
:102EB0004102B2F17F4F11D84FEA4003B3F17F4F87
:102EC0000CD80ED14FEAD07CB2F17F4F0CEB4C0CFA
:102ED0000CF1020C08BF4CEBD17C04E04FF0080C65
:102EE00001E04FEAD17C0CEB4C0324FA03F404F02C
:102EF0000704B4F1040C06D20EEB840CBDE81040BC
:102F00004CF0010C6047DFE80CF0070802024FF0BC
:102F10000040A0F5800010BD0846420018BFD2F165
:102F2000807288BF00F0004010BDFF2141EAD05000
:102F3000C0057047FDF78BBB0CF00F03092B08BFD2
:102F4000082000F059800A2B0BD0082B18BF7047BF
:102F500008BF1CF0400F0AD04FF000004FF00001F6
:102F600070471CF0400F18BF4FF0004070471CF036
:102F7000100F08D020F0704300F07F4242EAD301E6
:102F80004FEA4370704700F0604021F07F4242EA10
:102F9000000201F07F4040EA727070474FF0FF0C72
:102FA0004CF4E06C1CEA11531CBF9CEA030C9445E2
:102FB000C2BFDA4201EB02517047002B0DD0BCF1C9
:102FC000000F0FD0002A01F00041A4BF41F0E04102
:102FD00041F07F614FF00000704701F000414FF079
:102FE0000000704750EA01334FF09B0C18BF4CF0C3
:102FF000806C7FF4B5AE70471CF4801F11D01CF4B8
:10300000E02F03D06FEACC31490070474FF04050B9
:10301000EFF3008222F0704242EA000282F300885D
:1030200070474FF0000070470102020304050607D5
:1030300008090A0B0C0D0E0F101000000000000014
:103040000000010203040607080900000000000058
:103050000000002F000000000700070000147F148C
:103060007F1400242A7F2A1200626408132300368A
:103070004955225000000503000000001C224100B9
:10308000000041221C000014083E08140008083EFD
:103090000808000000A060000008080808080000F8
:1030A00060600000002010080402003E5149453EC7
:1030B0000000427F400000426151494600214145E5
:1030C0004B31001814127F10002745454539003C4C
:1030D0004A4949300001710905030036494949361A
:1030E00000064949291E0000363600000000563609
:1030F00000000008142241000014141414140000ED
:103100004122140800020151090600324959513E7A
:10311000007C1211127C007F49494936003E414132
:103120004122007F4141221C007F49494941007FE3
:1031300009090901003E4149497A007F0808087FD2
:103140000000417F4100002040413F01007F081402
:103150002241007F40404040007F020C027F007F00
:103160000408107F003E4141413E007F09090906E5
:10317000003E4151215E007F091929460046494918
:1031800049310001017F0101003F4040403F001FE5
:103190002040201F003F4038403F00631408146364
:1031A00000070870080700615149454300007F414E
:1031B000410000552A552A55000041417F00000476
:1031C00002010204004040404040000001020400AF
:1031D000002054545478007F484444380038444414
:1031E000442000384444487F0038545454180008A0
:1031F0007E0901020018A4A4A47C007F08040478BE
:103200000000447D4000004080847D00007F102845
:1032100044000000417F4000007C04180478007CDA
:103220000804047800384444443800FC242424185A
:103230000018242418FC007C080404080048545496
:10324000542000043F444020003C4040207C001CAF
:103250002040201C003C4030403C004428102844C2
:10326000001CA0A0A07C004464544C44141414140A
:103270001414000000000000000000000000000026
:10328000FC000000000002000000000C020C020024
:1032900000000000000090D0BCD0BC9000030003F0
:1032A00000001824FE448C000302070201001824C9
:1032B000D8B04C80000300010201C038E438E000BF
:1032C00001020201020208060000000000000000E6
:1032D0000000000000F804020000000102040002E7
:1032E00004F800000004020100009060F860900003
:1032F0000000010000002020FC2020000000010050
:10330000000000000000000008060000000020206F
:10331000202020000000000000000000000000004D
:103320000002000000000080601C02000403000096
:103330000000F8040404F800010202020100000881
:10334000FC0000000002030200001884442418005E
:1033500003020202020008042424D800010202022F
:10336000010040B088FC80000000000302003C2403
:103370002424C400010202020100F824242CC0000D
:103380000102020201000C04E41C0400000003001E
:103390000000D8242424D80001020202010038448D
:1033A0004444F80000030202010000001000000085
:1033B00000000200000000002000000000000600E5
:1033C00000000020508804020000000001029090DC
:1033D000909090000000000000000002048850203F
:1033E0000002010000001804C424180000000200BC
:1033F0000000F804E494F80001020202020000E078
:103400009CF0800002030000030204FC2424D80086
:10341000020302020100F80404040C00010202028B
:10342000010004FC0404F80002030202010004FC91
:1034300024740C0002030202030004FC24740C0038
:10344000020302000000F0080444CC400001020224
:10345000010004FC2020FC04020300000302040419
:10346000FC040400020203020200000404FC040441
:1034700006040403000004FC24D00C040203020030
:10348000030204FC04000000020302020203FC3CED
:10349000C03CFC0003000300030004FC30C4FC0437
:1034A000020302000300F8040404F800010202020F
:1034B000010004FC24241800020302000000F88428
:1034C0008404F80001020207050004FC246498004B
:1034D000020302000302182424448C0003020202A7
:1034E00001000C04FC040C0000020302000004FCB8
:1034F0000000FC04000102020100047C80E01C04C6
:103500000000030000001CE03CE01C00000300037E
:103510000000049C609C0400020300030200041CE1
:10352000E01C04000002030200000C84641C040080
:103530000203020203000000FE0202000000070472
:103540000400000E30C00000000000010200000274
:1035500002FE000000040407000000040204000052
:10356000000000000000000000000000080808083B
:1035700008080000020000000000000000000040F9
:10358000A0A0C00000010202030204FC2020C00031
:1035900000030202010000C02020600000010202BE
:1035A000020000C02024FC0000010202030200C04F
:1035B000A0A0C0000001020202000020F8242404A0
:1035C0000002030202000040A0A0602000070A0AD7
:1035D0000A0404FC2020C0000203020003020020B1
:1035E000E4000000000203020000000020E40000EC
:1035F00008080807000004FC80E020200203020005
:1036000003020404FC000000020203020200E020A6
:10361000E020C00003000300030020E02020C000E1
:1036200002030200030200C02020C00000010202C9
:10363000010020E02020C000080F0A02010000C0A5
:103640002020E0000001020A0F0820E040202000B6
:103650000203020000000060A0A02000000202029D
:1036600003000020F820000000000102020020E01A
:103670000020E00000010202030220E02080602020
:103680000000030100006080E08060000003000390
:10369000000020608060200002030003020020E0A0
:1036A000208060200808070100000020A0602000A2
:1036B000000203020200000020DE020000000007FA
:1036C0000400000000FF00000000000F00000002E6
:1036D000DE200000000407000000020102040402D2
:1036E00000000000000000000000000000000000DA
:1036F000000000000000000000F8000000000000D2
:1037000000333000000000100C06100C0600000012
:1037100000000000000040C07840C0784000043F36
:1037200004043F040400007088FC08300000001806
:1037300020FF211E0000F008F000E018000000212A
:103740001C031E211E0000F00888700000001E21CE
:1037500023241927211010160E000000000000007D
:10376000000000000000000000E01804020000005B
:1037700000071820400000020418E000000000408C
:10378000201807000000404080F080404000020206
:10379000010F01020200000000F000000000010122
:1037A000011F01010100000000000000000080B0C6
:1037B0007000000000000000000000000000000198
:1037C00001010101010100000000000000000030C3
:1037D000300000000000000000008060180400605D
:1037E00018060100000000E010080810E000000FBB
:1037F000102020100F00001010F800000000002022
:10380000203F202000000070080808887000003069
:103810002824222130000030088888483000001811
:10382000202020110E000000C02010F8000000072A
:103830000424243F240000F80888880808000019A0
:10384000212020110E0000E0108888180000000FD1
:10385000112020110E0000380808C83808000000A8
:10386000003F000000000070880808887000001CFD
:10387000222121221C0000E010080810E0000000B6
:10388000312222110F00000000C0C0000000000023
:103890000030300000000000008000000000000048
:1038A000806000000000000080402010080000013F
:1038B0000204081020004040404040404000040402
:1038C00004040404040000081020408000000020CC
:1038D000100804020100007048080808F000000009
:1038E000003036010000C030C828E810E00007189A
:1038F000272423140B000000C038E0000000203C07
:1039000023020227382008F8888888700000203FAA
:10391000202020110E00C0300808080838000718C1
:1039200020202010080008F808080810E000203FB8
:10393000202020100F0008F88888E8081000203F99
:1039400020202320180008F88888E8081000203F6D
:10395000200003000000C0300808083800000718E5
:103960002020221E020008F808000008F808203F66
:10397000210101213F20000808F80808000000206C
:10398000203F2020000000000808F8080800C08040
:1039900080807F00000008F888C028180800203FB9
:1039A00020012638200008F8080000000000203F11
:1039B00020202020300008F8F800F8F80800203F08
:1039C000003F003F200008F830C00008F808203F02
:1039D000200007183F00E01008080810E0000F1052
:1039E000202020100F0008F808080808F000203FE9
:1039F000210101010000E01008080810E0000F1884
:103A0000242438504F0008F8888888887000203FA8
:103A10002000030C302000708808080838000038A7
:103A2000202121221C00180808F8080818000000AE
:103A3000203F2000000008F808000008F808001FD8
:103A4000202020201F000878880000C838080000C7
:103A500007380E010000F80800F80008F800033CE1
:103A60000700073C030008186880806818082030A9
:103A70002C03032C30200838C800C8380800000088
:103A8000203F2000000010080808C838080020382F
:103A9000262120201800000000FE02020200000083
:103AA000007F40404000000C30C0000000000000DB
:103AB00000010638C00000020202FE0000000040C3
:103AC00040407F00000000000402020204000000E9
:103AD00000000000000000000000000000008080E6
:103AE00080808080808000020204000000000000CE
:103AF00000000000000000008080808000000019AD
:103B0000242222223F2008F8008080000000003F8D
:103B1000112020110E000000008080800000000EA7
:103B2000112020201100000000808088F800000E85
:103B3000112020103F200000808080800000001FA6
:103B4000222222221300008080F08888881800201A
:103B5000203F202000000000808080808000006BDB
:103B600094949493600008F8008080800000203FC7
:103B7000210000203F2000809898000000000020D5
:103B8000203F20200000000000809898000000C026
:103B90008080807F000008F8000080808000203F47
:103BA00024022D302000000808F80000000000204A
:103BB000203F202000008080808080808000203F87
:103BC00020003F20003F8080008080800000203F58
:103BD000210000203F200000808080800000001F26
:103BE000202020201F00808000808000000080FFB7
:103BF000A12020110E000000008080808000000EB7
:103C0000112020A0FF808080800080808000202004
:103C10003F21200001000000808080808000003370
:103C2000242424241900008080E08080000000000B
:103C3000001F202000008080000000808000001F06
:103C4000202020103F2080808000008080800001A4
:103C50000E300806010080800080008080800F30D8
:103C60000C030C300F00008080008080800000205A
:103C7000312E0E3120008080800000808080808185
:103C80008E701806010000808080808080000021F6
:103C9000302C2221300000000000807C0202000055
:103CA0000000003F404000000000FF000000000056
:103CB0000000FF0000000002027C800000000040C5
:103CC000403F000000000006010102020404000061
:103CD00000000000000000000000000000000000E4
:103CE00000000000000000000000000000000000D4
:103CF000000000000000000000000000000000F0D4
:103D0000F0F0000000000000000000017F01000052
:103D1000000000000000001C1C1C0000000000004F
:103D20008060301C8C60301C0C0000000000000023
:103D30000000000000000000000000000000000083
:103D40000000000000E00000000000E0000000862D
:103D5000E69F86868686E69F860000011F01010198
:103D600001011F010100000080C06020F820E0C0B8
:103D70000000000003070C18FF70E1810000000044
:103D8000070F10107F100F07000080602060800078
:103D90000000E02000000F3020309F70DC37103032
:103DA000C0000000100E03000718101807000000E4
:103DB000C02020E0C0000000000080E01F38E8873D
:103DC00003C43C040000070F1810100B070D10105F
:103DD000080000808C4C380000000000000000004B
:103DE00000000000000000000000000000000000D3
:103DF00000000000000000000000000080E030082B
:103E000004000000000000FEFF01000000000000B0
:103E100000000000030F1820400000040830E0807C
:103E20000000000000000000000001FFFE00000094
:103E30000000004020180F030000000000000000F8
:103E400000000000C00000000000004266663C1850
:103E5000FF183C66664200000000000003000000FE
:103E600000000000000000008000000000000010C2
:103E700010101010FF1010101010000000000000B3
:103E8000030000000000000000000000000000002F
:103E900000000000000000000000000000000080A2
:103EA0008C4C380000000000000000000000000002
:103EB0000000000000000010101010101010101072
:103EC00010000000000000000000000000000000E2
:103ED00000000000000000000000000000000000E2
:103EE00000000000000000001C1C1C00000000007E
:103EF00000000000000000000000E0380C0000009E
:103F0000000080701C03000000000060380E0100FB
:103F1000000000000000000080C060202060C08021
:103F2000000000FEFF010000000001FFFE00000194
:103F3000070E181010180E0701000000808080C0C6
:103F4000E000000000000000000000FFFF00000093
:103F5000000000001010101F1F1010100000008043
:103F6000402020202060C08000000003030080402B
:103F700020381F070000001C1A1918181818181FDD
:103F800000000080C020202060C0800000000003EE
:103F900003001010182FE780000000070F1010100A
:103FA00010180F070000000000000000C0E0F00043
:103FB000000000C0B088868180FFFF808000000084
:103FC00000000010101F1F1010000000E060606073
:103FD00060606060000000003F1008080818F0E012
:103FE000000000070B101010101C0F030000000051
:103FF00080C040202020E0C0000000FCFF2110080D
:10400000080818F0E0000001070C18101010080F45
:1040100003000000C0E06060606060E060000000DD
:1040200003000000E0180700000000000000001F6F
:104030001F00000000000080C0602020202060C021
:1040400080000087EF2C1818303068CF83000007FD
:104050000F0810101010180F07000000C0C020201B
:104060002020C0800000001F3F604040402010FF23
:10407000FE0000000C1C101010080F0300000000D0
:104080000000000000000000000000000000000E22
:104090000E0E0000000000000000001C1C1C0000B0
:1040A0000000000000000000000000000000000010
:1040B0000000000C0C000000000000000000005890
:1040C00038000000000000000000000000804020D8
:1040D00010000000102844820100000000000000D1
:1040E00000000000010204081000000000000000B1
:1040F000000000000000008484848484848484841C
:10410000840000000000000000000000000000002B
:1041100010204080000000000000000000000000AF
:104120000182442810000000100804020100000071
:10413000000000C020201010101030E0C00000036C
:10414000030000F010080C070300000000001C1C16
:104150001C0000000000000000C040602020204043
:10416000C00000FCFF01F00E03C1FE03807F0001D0
:10417000070E08111110110904020000000080E070
:10418000E000000000000000807C4340477FF88092
:10419000000010181F1000000000131F1C1020E06A
:1041A000E02020202060C080000000FFFF101010E1
:1041B00010182FE78000101F1F1010101010180F7C
:1041C0000700000080C0402020202060E00000FCAC
:1041D000FF0100000000000001000001070E1810A0
:1041E00010100804030020E0E02020202040C080C0
:1041F000000000FFFF000000000001FFFE00101F94
:104200001F10101018080E07010020E0E0202020E9
:1042100020202060800000FFFF101010107C0000A4
:104220000000101F1F10101010101018060020E0C2
:10423000E020202020206060800000FFFF10101090
:10424000107C00000100101F1F1000000000000083
:104250000000000080C06020202040E0000000FC42
:10426000FF0100004040C0C140400001070E18108F
:1042700010100F0F000020E0E0200000000020E000
:10428000E02000FFFF101010101010FFFF00101FA3
:104290001F1000000000101F1F100000202020E051
:1042A000E020202000000000000000FFFF000000D0
:1042B000000000001010101F1F1010100000000060
:1042C0000000202020E0E02020200000000000006E
:1042D00000FFFF0000000060E0808080C07F3F00A2
:1042E000000020E0E020000020A06020200000FF6F
:1042F000FF30187CE3C000000000101F1F100000FA
:1043000001131F1C181020E0E02000000000000036
:10431000000000FFFF000000000000000000101F70
:104320001F10101010101018060020E0E0E0000030
:104330000000E0E0E02000FF013FFEC0E01E01FFC2
:10434000FF00101F1000031F0300101F1F1020E0AC
:10435000E0C0000000000020E02000FF0003071C78
:1043600078E08000FF00101F100000000000030F25
:104370001F00000080C060202060C080000000FEA0
:10438000FF010000000000FFFE000001070E1810F2
:1043900010180C07010020E0E0202020202060C041
:1043A000800000FFFF2020202020301F0F00101F62
:1043B0001F100000000000000000000080C060200E
:1043C0002060C080000000FEFF010000000000FF30
:1043D000FE000001070E1111133C7C67210020E054
:1043E000E0202020202060C0800000FFFF1010305F
:1043F000F0D0080F0700101F1F10000000030F1C53
:1044000010100080C060202020204040E000000705
:104410000F0C1818303060E08100001F0C081010DD
:104420001010180F07008060202020E0E0202020DE
:1044300060800100000000FFFF000000000100009C
:104440000000101F1F100000000020E0E02000000E
:1044500000000020E02000FFFF000000000000003E
:10446000FF0000070F181010101010080700206040
:10447000E0E02000000020E060200000077FF880DE
:1044800000807C03000000000000071F1C070000E4
:10449000000020E0E02000E0E0200020E020000715
:1044A000FFF8E01FFFFCE01F00000000031F0300F7
:1044B000011F03000000002060E0A0000020E06079
:1044C0002000000000038F7CF8C6010000000010EF
:1044D000181E130001171F1810002060E0E02000D4
:1044E000000020E06020000001073EF8E01807000F
:1044F000000000000010101F1F10100000000080BE
:104500006020202020A0E0E0200000000000C0F09B
:104510003E0F0300000000101C1F17101010101891
:1045200006000000000000FC040404040400000075
:10453000000000FF00000000000000000000007FFD
:10454000404040404000000010E00000000000003B
:10455000000000000000031C60800000000000005C
:104560000000000000030C7080000000040404043C
:1045700004FC0000000000000000000000FF00003C
:104580000000000040404040407F0000000000006C
:104590000010080C040C08100000000000000000CF
:1045A000000000000000000000000000000000000B
:1045B00000000000000000000000000000000000FB
:1045C00000000000000000000000808080808080EB
:1045D00080808080808000000004040808000000C3
:1045E00000000000000000000000000000000000CB
:1045F00000000000000000000000000000000000BB
:10460000000000000000000098D844642424FCF856
:104610000000000F1F18101010081F1F1018002096
:10462000E0F000000000000000000000FFFF18089C
:1046300004040CF8F00000001F0F18101010180FE1
:10464000030000000000000000000000000000E087
:10465000F8180404043C3800000000030F0C10108C
:104660001010080600000000000000000020E0F02C
:10467000000000E0F81C04040408FFFF0000000331
:104680000F18101010081F0F080000000000000095
:104690000000000000000000E0F8484444444C786A
:1046A00070000000030F0C18101010080400000028
:1046B000000080C0602020E0C00000040404FFFF70
:1046C000040404040000000010101F1F101010004C
:1046D00000000000000000000000000000000000DA
:1046E00070F88C04048CF874040C007076CF8D8DF7
:1046F0008D89C87870000020E0F000000000000004
:1047000000000000FFFF08040404FCF80000001093
:104710001F1F100000101F1F10000000000000608D
:104720006000000000000000040404FCFC00000025
:10473000000000001010101F1F10101000000000DB
:1047400000000000006060000000000000000404A1
:1047500004FCFC0000000000C0C08080C07F3F005F
:1047600000000020E0F00000000000000000000059
:10477000FFFF80C0F41C0404000000101F1F110084
:10478000031F1C1010000000202020E0F00000009B
:1047900000000000000000FFFF000000000000001B
:1047A0001010101F1F10101000000000000000006B
:1047B00000000000000004FCFC0804FCFC0804FCF1
:1047C000FC00101F1F10001F1F10001F1F100000F3
:1047D000000000000000000000000004FCFC0808CD
:1047E0000404FCF8000000101F1F100000101F1F21
:1047F000100000000000000000000000000000E0C9
:10480000F0180C04040C18F0E00000030F0C10105A
:1048100010100C0F0300000000000000000000005A
:1048200000000004FCFC080404040CF8F000008004
:10483000FFFF889010101C0F030000000000000014
:1048400000000000000000E0F81C04040408F8FC6C
:10485000000000030F1810109088FFFF8000000078
:1048600000000000000000000000040404FCFC1034
:104870000804040C0C001010101F1F101010000072
:104880000000000000000000000000000000000028
:104890003078CCC48484840C1C0000001E181010D6
:1048A0001011190F06000000000000C000000000F9
:1048B000000000040404FFFF0404040000000000E2
:1048C00000000F1F1010100C00000000000000007E
:1048D0000000000000000004FCFE00000004FCFEDC
:1048E000000000000F1F181010081F0F0800000024
:1048F0000000000000000000000000040C3CFCC4AC
:104900000000C43C0C0400000000010F1E0E01005A
:104910000000000000000000000000000000043C57
:10492000FCC400E47CFC84807C040000071F0700BA
:1049300000071F070000000000000000000000004A
:1049400000000004041C7CE4C0341C0404000010BB
:10495000101C1601131F1C1810000000000000009E
:1049600000000000000000040C3CFCC400C43C0437
:1049700004000000C080C1370E01000000000000EC
:104980000000000000000000000000001C0404C43F
:10499000F47C1C0400000000101C1F1711101018DC
:1049A0000E0000000000000000F80C0400000000F1
:1049B0000000001028EF00000000000000000000D0
:1049C000003F60400000000000000000FF00000009
:1049D0000000000000000000FF00000000000000D8
:1049E00000000000FF00000000000000040CF800C0
:1049F00000000000000000000000EF281000000090
:104A00000000000040603F000000000000000018AF
:104A100006020204081020203008000000000000F8
:104A20000000000000000000000000000000000086
:104A300000000000F010101010FF10101010F00017
:104A4000000000000F04040404FF040404040F0029
:104A500000004040405F555555755555555F4040E5
:104A600040000040200F094989790909090F2040B9
:104A7000000000FE02424ACA4A4ACA4A4A4202FEAC
:104A8000000000FF40504C4340404F50505C40FFFE
:104A900000000000F888888888FF88888888F800E7
:104AA000000000001F080808087F888888889F8009
:104AB000F00080828282828282E2A2928A86828052
:104AC0008000000000000040807F00000000000027
:104AD0000000101010FF109008888888FF888888D0
:104AE00008000444827F01808040432C10284681C6
:104AF00080000010101010D030FF30D0121C1010A9
:104B0000000010080402010000FF00000102040878
:104B1000100004040484E43C2724242424E4040432
:104B2000040004020100FF0909090949897F000006
:104B3000000000FE225A8600FE9292929292FE009F
:104B4000000000FF04080700FF4020030C1422416E
:104B50004000008040201806800007182040800098
:104B60000000010020702826212020243860000148
:104B70000100001012929292929292121202FE0082
:104B800000000000003F101010103F0040807F0028
:104B90000000000000C080808080808080FC8480D5
:104BA0008080808080C0C0000000000000FF7F4047
:104BB0004040404040FF40404040404040FF7F0078
:104BC000000000000000000000000000007F7000F6
:104BD00000000000000000000000000000000000D5
:104BE000000000000000000000FCF80000000000D1
:104BF0000000000000000000000000000000FFFEB8
:104C0000020202020202020202FFFF02020202028A
:104C100002020202FF0300000000000000001F1F4C
:104C2000040404040404040404FFFF04040404044E
:104C3000040404041F000000000000000000000045
:104C40000000000000000000007F3F0000000000A6
:104C50000000000000000000000000000000000054
:104C60000000000000000000000000000000000044
:104C700000000000000000F8F8F0F07020000000D4
:104C80000000000000000000000000000000000024
:104C90000000000000000000000000000000000014
:104CA0000000800000000000000000000000000084
:104CB00000000000000000FFFFFFFF0000000000F8
:104CC00000000000000000000000000000008080E4
:104CD00000000000000000000000000000000000D4
:104CE000000000FFFFFE060606060606060606068C
:104CF00006060606060606FFFFFFFF060606060670
:104D000006060606060606060606060606FFFFFF58
:104D1000FF0702000000000000000000000000008B
:104D2000000000FFFFFF0000000000000000000086
:104D300000000000000000FFFFFFFF000000000077
:104D400000000000000000000000000000FFFFFF66
:104D5000FF00000000000000000000000000000054
:104D6000000000FFFFFF1818181818181818181856
:104D700018181818181818FFFFFFFF181818181817
:104D800018181818181818181818181818FFFFFFEE
:104D9000FF00000000000000000000000000000014
:104DA00000000201010000000000000000000000FF
:104DB00000000000000000FFFFFFFF0000000000F7
:104DC00000000000000000000000000000010100E1
:104DD00000000000000000000000000000000000D3
:104DE00000000000000000000000000000000000C3
:104DF00000000000000000FFFFFFFF0000000000B7
:104E000000000000000000000000000000000000A2
:104E10000000000000000000000000000000000092
:104E20000000000000000000000000000000000082
:104E3000000000000000001F1F0F0F000000000016
:104E40000000000000000000000000000000000062
:104E50000000000000000000000000000240000010
:104E6000000000A00000000005400000000000C895
:104E7000000000000C4000000000409C000000000A
:104E8000194000000020BCBE0000000034400000BB
:104E9000BFC91B8E00000004B5400000504BCFD0AE
:104EA0006607E2CF010000006C4100003E8251AA7B
:104EB000DFEEA73401000000D9420000DCB5A0E21B
:104EC0003A301F97FFFFFFFFB4450000FD25A0C843
:104ED000E9A3C14FFFFFFFFFFF3F0000000000807C
:104EE00000000000FF3F0000000000800000000004
:104EF0002C4F0008000000201000000028010008CE
:104F00003C4F000810000020380B0000440100084E
:104F10001C00000043000000F8FFFFFF0C00000031
:104F20000E0000000F0000002E0000000100000035
:0C4F3000100000000000000000127A00D9
:04000005080000ED02
:00000001FF
