:020000040800F2
:10000000400E0020010100082F28000817240008D6
:100010002D280008BF070008413400080000000038
:10002000000000000000000000000000452E000855
:10003000310B000800000000192D0008C12E000837
:100040001B0100081B0100081B0100081B01000820
:100050001B0100081B0100081B0100081B01000810
:100060001B0100081B0100081B0100081B01000800
:100070001B0100081B0100081B0100081B010008F0
:10008000F90900081B0100081B0100081B010008FA
:100090001B0100081B0100081B010008490B000898
:1000A0001B010008252F00081B0100081B01000888
:1000B0001B0100081B0100081B0100081B010008B0
:1000C0001B0100081B0100081B0100081D2D000872
:1000D0001B0100081B010008F93300081B01000880
:1000E000330B00081B0100081B010008DFF80CD0CF
:1000F00000F032FB00480047AD3F0008400E0020F2
:100100000648804706480047FEE7FEE7FEE7FEE7B1
:10011000FEE7FEE7FEE7FEE7FEE7FEE7232F000827
:10012000ED000008202A04DB203A21FA02F0002129
:10013000704721FA02F3D040C2F1200291400843F7
:1001400019467047D2B201E000F8012B491EFBD2DC
:1001500070470022F6E710B513460A4604461946D2
:10016000FFF7F0FF204610BD30B5044600200346DF
:1001700000E05B1C934203D2E05CCD5C401BF8D0F6
:1001800030BD70B521F0004303430CD0C1F30A55D4
:100190000024D5EB040564EB0403D617AD1AB34174
:1001A00002DB0020014670BD201841EB025170BDFA
:1001B0000EB5C10F80EAE0700844CA07002140F282
:1001C00033438DE80E000A460B4600F0BEF803B03C
:1001D00000BD00F0004230F000400AD0C10D01F532
:1001E0006071C0F3160042EA0151C2084007114392
:1001F000704700200146704701F0004330B421F001
:10020000004150EA010206D00A0DA2F56072C1F366
:100210001301002A02DC30BC00207047440F44EA7E
:10022000C104C100E01830BC00EBC25000F047B878
:1002300030B50B46014600202022012409E021FAB6
:1002400002F59D4205D303FA02F5491B04FA02F5B3
:100250002844151EA2F10102F1DC30BD2DE9F05F4A
:100260000546002092469B46884606468146402425
:100270001BE02846414647462246FFF753FF5346B8
:100280005A46C01A914110D311461846224600F032
:1002900075FA2D1A67EB01084F462246012000210E
:1002A00000F06CFA17EB00094E41201EA4F1010486
:1002B000DFDC484631462A464346BDE8F09F002928
:1002C000A8BF7047401C490008BF20F001007047DC
:1002D00010B4B0FA80FC00FA0CF050EA010404BF3C
:1002E00010BC704749B1CCF1200421FA04F411FA92
:1002F0000CF118BF012121430843A3EB0C01CB1DD6
:100300004FEA00614FEA102042BF002010BC704746
:1003100000EBC35010440029A4BF10BC7047401C20
:10032000490008BF20F0010010BC704710B5141E32
:1003300073F1000408DA401C41F1000192185B419E
:100340001A4301D120F0010010BD2DE9F04D924675
:100350009B4611B1B1FA81F202E0B0FA80F220328C
:10036000904600F00BFA04460F4640EA0A0041EAC4
:100370000B0153465A46084313D0114653EA010075
:1003800019D0C8F140025046FFF7CCFE05460E4694
:1003900050465946424600F0F1F9084305D0012085
:1003A00004E020463946BDE8F08D0020054346EACA
:1003B000E0762C4337430A986305E40AA0EB080073
:1003C0000022FD0A44EA47540A3002D500200146C3
:1003D000E9E7010510196941DDE90845001969419E
:1003E000BDE8F04DA2E72DE9FE4F804681EA03000B
:1003F000C00F0C46009021F0004123F00045B8EBFF
:100400000200A94105D24046214690461C460B46B3
:10041000024623F00040104347D0270DC7F30A00DF
:10042000C3F30A510290401A019040286BDAC3F3DB
:10043000130040F4801B0098924620B10023D2EBB9
:10044000030A63EB0B0B01985946C0F1400250467A
:1004500000F094F906460D4650465946019A00F0C0
:100460009CF910EB08006141002487EA115284EAEC
:10047000E7731A4340D0009A62B3019A012A4FEA07
:10048000075215DC001B61EB02014FF0004202EA4B
:100490000752CDE90042001C41F5801132462B463F
:1004A000FFF753FF03B0BDE8F08F40462146F9E760
:1004B000001B61EB0201001C41F5801300185B4139
:1004C0002018A2F5001747EB030140EAD570B619D2
:1004D0006D4111E06D084FEA360645EAC0754FEAF6
:1004E0000752001B61EB0201001C41F58011490815
:1004F0004FEA30000019514132462B4603B0BDE8A7
:10050000F04FFFF713BF0098012240000023D0EB0B
:10051000020263EBE073009821464FEAE074B8EB07
:10052000000061EB0401E9E783F000435BE781F041
:10053000004158E72DE9FE4F81EA030404F000442E
:1005400021F0004100944FF0000B23F0004350EAEB
:1005500001045ED052EA03045BD0C3F30A54C1F332
:100560000A552C44A4F2F3340194A0FB0254C1F3C5
:10057000130141F48011C3F3130343F4801301FB0F
:10058000024400FB034E840A970A44EA815447EA76
:100590008357A4FB076802958D0A05FB07854FEA80
:1005A000932C04FB0C542705029D4FEA065847EA9A
:1005B0001637B5EB08056EEB070C870E920E47EA6F
:1005C000811742EA8312A7FB0201B6EB0B0164EB31
:1005D00000042B0D43EA0C335E1844EB1C50DA4642
:1005E0005146E7FB0201C5F313044FEA0B3343EA1C
:1005F00014534FEA0432019C43EA0603A4F10C04AD
:100600000294009CCDE900B4FFF79FFE03B0BDE863
:10061000F08F00200146F9E72DE9F04D81EA03044F
:1006200004F0004B21F0004514464FF0000A23F07F
:10063000004150EA050220D054EA01021DD0C5F362
:100640000A570246C5F31303C1F31300C1F30A5658
:1006500040F4801543F48013A7EB0608101BD64620
:1006600008F2FD3873EB050002D308F1010801E040
:1006700092185B41B8F1000F03DA00200146BDE893
:10068000F08D00204FF48011064684460EE0171BC3
:1006900073EB050705D3121B63EB050306434CEA16
:1006A000010C49084FEA300092185B4150EA0107FB
:1006B000EDD152EA030012D082EA040083EA050178
:1006C000084305D0101BAB4106D20122002306E0EF
:1006D00000224FF0004302E06FF0010253101AEBCA
:1006E00006004CEB085110EB0A0041EB0B01BDE892
:1006F000F04DFFF71BBEC1F30A52C1F3130140F2E4
:10070000FF3341F480119A4202DA0020014670471B
:1007100040F233439A42A2F2334202DC5242FFF7E4
:1007200001BD00F02BB8000030B5041E71F10004CB
:1007300004DB4FF00044404264EB0101141E73F1EE
:10074000000405DB1C464FF00043524263EB0403F8
:10075000994208BF904230BD064C074D06E0E06864
:1007600040F0010394E8070098471034AC42F6D3F8
:10077000FFF7C0FC1C6200083C620008202A04DB72
:10078000203A00FA02F1002070479140C2F12003A4
:1007900020FA03F3194390407047202A06DBCB1759
:1007A000203A41FA02F043EAE07306E041FA02F32C
:1007B000D040C2F120029140084319467047FEE73D
:1007C00070B5002402F040FB4FF48075124E04E037
:1007D000641CE4B2012003F0D7FA2946304600F049
:1007E0008BFC10B1642CF3D30FE0642C0DD20024E9
:1007F00004E0641CE4B2012003F0C6FA2946304646
:1008000000F07AFC18B1F02C04D3012070BDF02C5C
:10081000EFD3FAE7002070BD000C014010B504468C
:1008200000F0A8FD0349B0FBF1F16143491EFDD280
:1008300010BD000000093D0010B52820FFF7EEFFB5
:100840004FF40071034800F057FC08B1002010BDC0
:10085000012010BD000C01401FB50A4B4FF400727F
:10086000012120B100200092CDE9010104E0032024
:10087000CDE90021CDE902106946184600F04CFB95
:100880001FBD0000000C014070B50D4D4FF4007409
:100890002146284600F030FC0028F9D02820FFF738
:1008A000BDFF2146284600F027FC002806D021463F
:1008B000284600F021FC0028F9D1012070BD00007D
:1008C000000C014070B5002425466006040EFFF7B9
:1008D000DBFF08B144F001046D1CEDB2082DF4D328
:1008E000204670BD70B58CB0202104A8FFF731FC04
:1008F00000200290039000F06BF8FFF79DFF0028A6
:1009000055D02C4D4FF400742146284600F0F4FBDE
:100910000028F9D02146284600F0EEFB0028F9D146
:10092000002402AEFFF7CEFF3055641CE4B2052C64
:10093000F8D39DF808209DF809309DF80A409DF8ED
:100940000B10D018661830449DF80C60B0422CD1C2
:10095000CDE9004118A104A802F084FD0120102374
:1009600004AA0146009002F0CFF802F035F8174CC7
:100970009DF808004FF400512268904201DB0022EC
:1009800000E00122284600F0BCFB9DF80A006268E6
:100990004FF48051904201DB002200E00122284602
:1009A00000F0AFFB01200CB070BD0020FBE702207F
:1009B000F9E70000000C014025642E25642525522E
:1009C000482025642E2564430D0A000054000020B1
:1009D00010B50020FFF740FF00224FF400710548DA
:1009E00000F08FFB142000F065FABDE810400120F4
:1009F000FFF732BF000C0140014800F04BB9000086
:100A00007C05002030B590F840500124AC40C56B07
:100A10006C60046863604368102B036803D09960BE
:100A20000068C26030BD9A600068C16030BD10B51A
:100A300000F032F8BDE81040FFF7C2BE2DE9F041EA
:100A4000002635464FF48077DFF8488002F01AFA26
:100A5000002239464446404600F053FB0A2003F08A
:100A600093F902F0F1F93946204600F045FB0128E0
:100A70000DD000242D2003F087F9AC4034436D1CC9
:100A8000EDB2E6B2082DE1D33046BDE8F081012495
:100A9000F0E70000000C014070B502F0F3F90B4DD7
:100AA0004FF4807400222146284600F02AFB40F2D1
:100AB000EE2003F069F901222146284600F021FBCF
:100AC000BDE870400F2003F05FB90000000C01404A
:100AD0002DE9F041054602F0D5F90124134F260215
:100AE00025424FF00002314638460BD100F009FB99
:100AF000462003F049F901223146384600F001FB57
:100B000002200AE000F0FDFA092003F03DF901227D
:100B10003146384600F0F5FA372003F035F9600029
:100B200010F0FF04DCD1BDE8F0810000000C0140B2
:100B3000704710B54FF4804000F0E2F9BDE8104076
:100B40004FF4004000F0DCB94FF4807000F0D8B9E9
:100B500072B6FEE710B5FFF79FFFFFF731FECC201E
:100B6000FFF7B6FF4420FFF7B3FF4FF4AF7003F079
:100B70000BF9FFF791FFFFF723FECC20FFF7A8FF4B
:100B8000BE20FFF7A5FFFFF759FF0446FFF756FF0A
:100B9000000201B251EA04006FF0030401D5C04322
:100BA000401CFFF705FB2246FFF7EBFABDE81040BB
:100BB000FFF722BB10B590F821100022022905D0C2
:100BC0000421816380F82020012010BD01680B689A
:100BD00023F00E030B6001680B6823F001030B6028
:100BE00090F84030C46B012101FA03F3636080F890
:100BF000211080F82020104610BD000010B590F89C
:100C000021100024022903D00421816301243DE046
:100C100001680A6822F00E020A6001680A6822F080
:100C200001020A601A4A0168914201D1012121E0C2
:100C3000174A1432914201D110211BE0144A283284
:100C4000914201D1891515E0114A3C32914201D1FE
:100C500089140FE00E4A5032914202D14FF4803194
:100C600008E00B4A6432914202D14FF4801101E056
:100C70004FF08071064A083A5160012180F8211036
:100C8000002180F82010416B01B18847204610BD3B
:100C9000080002402DE9F05FC16B0C6801680B6829
:100CA000D0F840C0042202FA0CF2494DDFF824A12A
:100CB000494E4A4FDFF828B1DFF828E122422CD014
:100CC0005A072AD50A68920603D40A6822F0040259
:100CD0000A600168A94201D1042219E0514501D1FD
:100CE000402215E0B14202D14FF4806210E0B942D7
:100CF00002D14FF480420BE0594502D14FF48022DB
:100D000006E0714502D14FF4800201E04FF08062AD
:100D10002F4908394A60C16A3BE04FF0020808FADF
:100D20000CF818EA040F4FF000094FF0010235D01B
:100D30005FEA837832D50B689B0605D40B6823F0F5
:100D40000A030B6080F821200168A94201D1022228
:100D500019E0514501D1202215E0B14202D14FF4F2
:100D6000007210E0B94202D14FF400520BE0594535
:100D700002D14FF4003206E0714502D14FF4001267
:100D800001E04FF00072124908394A6080F8209063
:100D9000816A00291AD0BDE8F05F0847082505FAE6
:100DA0000CF5254212D01B0710D50B6823F00E035B
:100DB0000B6090F84010C36B02FA01F15960826336
:100DC00080F8212080F82090016BE2E7BDE8F09FD9
:100DD000080002401C000240300002404400024073
:100DE000580002406C00024030B528B308C81349CF
:100DF00014221944B1FBF2F18900C16310498163E7
:100E0000022141771A6843F6F0718A43D0E9001451
:100E10002143D0E902452C4321430469214344691D
:100E20002143846921431143196000214163012258
:100E300042770177084630BD012030BDF8FFFDBF85
:100E40000000024070B5044690F8200000250128FB
:100E50000CD0012084F8200094F821600020012E9D
:100E600006D084F820000225284670BD022070BDFF
:100E7000022684F82160A0632068066826F0010637
:100E800006602046FFF7BEFDE06A00282068016882
:100E900002D041F00E0106E021F00401016020685B
:100EA000016841F00A0101602068016841F0010118
:100EB0000160D9E770B5044600F028F90546601CCA
:100EC00002D004480078044400F020F9401BA042FE
:100ED000FAD370BD440000200849B0F5807F08D0E7
:100EE000B0F5004F07D0B0F5804F01D10220087057
:100EF00070470020FBE70120F9E700000800002010
:100F0000044910B50A68024202D00860FFF7E4FF06
:100F100010BD0000140401402DE9F84FDFF8B8912E
:100F20000024A9F1040B23460F2709F1040AABF1B1
:100F3000040EC9E00125A5402A40AA427DD1674E92
:100F4000D1F804C0ACEB0608B44532D014DCBCF1D7
:100F5000030F3AD009DCBCF1000F2AD0BCF1010F1D
:100F60001CD0BCF1020F31D11DE0BCF1110F17D024
:100F7000BCF1120F2AD119E0B8F5881F19D006DC90
:100F8000B8F5803F15D0B8F5801F1FD111E0B8F536
:100F9000001F0ED0B8F5041F18D10AE0CB6815E089
:100FA000CB681B1D12E0CB6808330FE0CB680C3315
:100FB0000CE08B682BB1012B4FF0080303D0456187
:100FC00004E0042302E0056100E00023FF2A01D8C9
:100FD000064601E000F104064FEA840501D9A5F1B7
:100FE0002005D6F8008007FA05FC28EA0C0803FA69
:100FF00005F548EA0508C6F800804D68ED0062D5A1
:10100000374DAE6946F00106AE61AD6924F00306C6
:1010100005F001050095334D06EB050CDCF8085092
:10102000A607360F07FA06F825EA0805DFF8B880A4
:10103000404503D14FF0000817E044E0DFF8AC80F2
:10104000404502D14FF001080FE0DFF8A480404591
:1010500002D14FF0020808E0DFF89880404502D145
:101060004FF0030801E04FF0040808FA06F848EAD8
:101070000508CCF808804D68D9F80060ED024D46AF
:1010800001D5164300E096432E604D68DAF8006003
:10109000AD02554601D5164300E096432E604D68DB
:1010A000DBF80060AD035D4601D5164300E09643D2
:1010B0002E604D68DEF80060ED03754601D51643DD
:1010C00000E096432E60641C0D682A46E5407FF4DC
:1010D00031AFBDE8F88F0000080401400000111096
:1010E000001002400000014000080140000C0140D7
:1010F00000100140001401408068084000D0012029
:1011000070470AB1016170470904FBE70148806834
:1011100070470000440000200248816802781144B2
:101120008160704744000020074810B5016841F015
:1011300010010160032000F075F80F2000F006F8A0
:1011400000F024F8002010BD0020024070B50D4DC5
:1011500004464FF47A712878B1FBF0F00A49096827
:10116000B1FBF0F000F0EEFC48B9102C07D20022E1
:101170002146501E00F036F800206C6070BD012042
:1011800070BD000044000020500000200C4808B54D
:10119000816941F001018161816901F001010091E2
:1011A000C16941F08051C161C06900F08050009078
:1011B0000448416821F0E06141F00071416008BDE0
:1011C0000010024000000140002809DB00F01F026F
:1011D000012191404009800000F1E020C0F8001199
:1011E00070470000F0B40E4B1B680C46C3F302239B
:1011F000C3F10705042D00D90425191D072901D2C3
:10120000002300E0DB1E012606FA05F1491E2140FD
:1012100099409E40761E16403143F0BC02F036B92C
:101220000CED00E0064900F0070208684FF6FF03E6
:10123000184040EA0220034A10430860704700004B
:101240000CED00E00000FA052DE9F0470F4605001F
:1012500061D0434E306800F00700B84209D23068D0
:1012600020F0070038433060306800F00700B842D3
:1012700051D128683B4C810712D5400703D56068DF
:1012800040F4E06060602878000703D5606840F4AF
:10129000605060606068A96820F0F00008436060FA
:1012A0002878C00728D06868012810D02168022853
:1012B00010D0890700292EDA616821F0030101436B
:1012C0006160FFF723FF804641F288390DE0216815
:1012D0008903EFE78901EDE7FFF718FFA0EB0801AD
:1012E000494502D90320BDE8F0876068696800F0CD
:1012F0000C00B0EB810FEFD1306800F00700B8426E
:101300000BD9306820F0070038433060306800F0B7
:101310000700B84201D00120E5E72878400705D54D
:101320006068E96820F4E06008436060287800079E
:1013300006D56068296920F4605040EAC100606009
:1013400000F03EF86168084AC1F30311515CC840DF
:101350000649086006480068FFF7F8FE0020C2E76B
:101360000020024000100240F2430008500000201C
:10137000480000200148006870470000500000202D
:101380000448054900684968044AC1F30221515CD8
:10139000C84070475000002000100240024400087E
:1013A0000448054900684968044AC1F3C221515CF8
:1013B000C84070475000002000100240024400085E
:1013C0000E4A51680E4801F00C03042B11D0082B73
:1013D0000FD10C48C1F38343C903C05C0AD55168DF
:1013E000084AC1F34041921E515C054A5043B0FB8C
:1013F000F1F0704704494843704700000010024074
:1014000000127A00E243000800093D002DE9F84F80
:10141000040070D02078C04DC00749D06868C0F380
:101420008100012807D06868C0F38100022809D133
:101430006868C00306D52868800339D5606800282D
:10144000E7D035E06068B0F5803F0BD010B1B0F563
:10145000A02F11D0286820F480302860286820F45C
:10146000802002E0286840F480302860606890B1F5
:10147000FFF74CFE06460AE0286840F4802028600A
:10148000F0E700BFFFF742FE801B642873D828688E
:101490008003F7D50CE0FFF739FE064605E000BFF4
:1014A000FFF734FE801B6428F0D828688003F7D447
:1014B00020789A4E80074FF001094FF0000839D587
:1014C000686810F00C0F07D06868C0F3810002282C
:1014D00009D16868C00306D42868800714D520693C
:1014E000012808D110E02069B0B1C6F80090FFF7DC
:1014F0000DFE074605E00AE1FFF708FEC01B0228C3
:10150000C4D828688007F7D52868616920F0F800FA
:1015100040EAC10028600DE0C6F80080FFF7F6FD44
:10152000074604E0FFF7F2FDC01B022823D8286815
:101530008007F7D4207800072CD57948A169D9B164
:10154000C0F80090FFF7E2FD074604E0FFF7DEFD7C
:10155000C01B02280FD8686A8007F7D571484FF47E
:10156000FA510068B0FBF1F0009000BF0098411EF6
:101570000091FAD20EE080E0C0F80080FFF7C6FDCF
:10158000074604E0FFF7C2FDC01B022875D8686A51
:101590008007F7D42078400760D5E8690027C000AD
:1015A00008D4E86940F08050E861E869012700F05C
:1015B000805000905C480168C90513D401688346D7
:1015C00041F480710160FFF7A1FD824606E000BF93
:1015D000FFF79CFDA0EB0A0064284ED8DBF8000062
:1015E000C005F5D5E06801280AD008B1052813D058
:1015F000286A20F001002862286A20F0040002E036
:10160000286A40F001002862E06841F2883B98B106
:10161000FFF77CFD82460BE0286A40F00400286258
:10162000EEE700BFFFF772FDA0EB0A0159455AD85B
:10163000286A8007F6D50CE0FFF768FD824605E0D2
:10164000FFF764FDA0EB0A0159454CD8286A8007D2
:10165000F6D41FB1E86920F08050E861E06988B3F2
:101660006968C1F38101022944D00228C6F860806C
:1016700004D0FFF74BFD044638E034E0FFF746FDA9
:10168000074604E0FFF742FDC01B02282BD828685C
:101690008001F7D4206AB0F5803F05D16868A16861
:1016A00020F4003008436860D4E908010843696801
:1016B00021F4741108436860C6F86090FFF726FDB6
:1016C000044606E025E000BFFFF720FD001B0228CE
:1016D00009D828688001F7D51BE000BFFFF716FD89
:1016E000001B022802D90320BDE8F88F286880017A
:1016F000F4D40EE00128F7D06868226A00F4803143
:10170000914204D1616A00F47010884201D0012036
:10171000EAE70020E8E70000001002400000424233
:1017200080044242500000200070004070470000DA
:1017300038B50446006842688168C9434B0606D53F
:10174000CB0704D1D3435B0601D4216C05E08B07A2
:1017500008D4D3431B0605D4616C01B02046BDE814
:10176000304008478B0601D54B0646D4D3439B0631
:1017700043D44B060AD494F85130032B3ED0636D0A
:1017800043F004036365C36883680093890609D442
:10179000616D41F00101616581680091016821F08E
:1017A00040010160606D002827D02068416821F069
:1017B000E0014160012084F85100900722D02068A8
:1017C000416821F003014160104DE06C40B1456378
:1017D000E06CFFF713FA18B1606D40F040006065EF
:1017E000A06C002809D04563A06CFFF707FA002819
:1017F00003D0606D40F04000606538BDC16880680E
:10180000009038BD2046FFF791FF38BD492D0008F4
:1018100070B5040009D0606A002540B1256165619A
:10182000A56294F8510040B10CE0012070BD6068E1
:10183000B0F5827FF4D0E561F2E784F8505020469D
:1018400000F040F8022084F851002068016821F07F
:1018500040010160A088218900F4827001F40441F4
:101860000843A18901F400610843217C01F00201D1
:101870000843217D01F001010843218B01F400712F
:101880000843217F01F03801084394F8201001F04B
:1018900080010843218D01F400510843216808604C
:1018A000A069042101EA1040216848602068C169EC
:1018B00021F40061C1616565012084F851000020B8
:1018C00070BD000030B585B00024009401940294EE
:1018D000039400681B49884232D11B48816941F456
:1018E00080518161816901F480510491816941F0E5
:1018F000080181618069154D00F0080004902820DE
:101900000090022001900320039069462846FFF7CB
:1019100003FB1020CDE90004694628460294FFF736
:10192000FBFA0B48416841F0E06141F00101416080
:10193000002211462320FFF755FC2320FFF744FC2B
:1019400005B030BD0030014000100240000C0140E5
:10195000000001402DE9FF4F81B01D46934604462B
:101960004FF001090E9EFFF7D1FB074694F8510096
:101970006168012806D0B1F5827F3CD1A168C9BB5E
:10198000042838D10298002871D0BBF1000FFBD099
:10199000002DF9D094F8500001282CD04FF0010A06
:1019A00084F850A094F85100042802D0052084F84F
:1019B00051004FF00008C4F85480C4F838B0E587EF
:1019C000A58702992163E586A586C4F84080C4F8FE
:1019D000448020680168490603D4016841F0400151
:1019E0000160E068B0F5006F606808D0F0B3012DC9
:1019F00049D081E0FFE7022005B0BDE8F08F08B1D3
:101A0000012D39D1206B21680088C860206B801CB3
:101A10002063E08E401EE0862EE020688168890702
:101A20000FD5E18E69B1B9F1010F0AD1216B098897
:101A3000C160206B801C2063E08E401EE0864FF06A
:101A4000000920688168C9070CD0E18F51B1C068D6
:101A5000A16B0880A06B801CA063E08F401EE08714
:101A60004FF00109FFF752FBC01B01E00BE067E0FC
:101A7000B04201D3701C50D1E08E0028CDD1E08F50
:101A80000028CAD13EE0206B216800780873206BE3
:101A9000401C2063E08E401EE0862DE020688168B7
:101AA00089070FD5E18E69B1B9F1010F0AD1216B18
:101AB00009780173206B401C2063E08E401EE08695
:101AC0004FF0000920688168C9070CD0E18F51B13F
:101AD000C068A16B0870A06B401CA063E08F401E23
:101AE000E0874FF00109FFF711FBC01BB04202D3A2
:101AF000701C01D011E086B1E08E0028CED1E08FBD
:101B00000028CBD13A463146204601F025F950B1A4
:101B10002020606584F8508012E084F851A084F899
:101B20005080032068E7A06818B92068C168806801
:101B3000009084F851A084F85080606D0028F1D0A6
:101B4000012059E710B5401EB0F1807F01D301207C
:101B500010BD4FF0E02460610F21601701F096FC8A
:101B60000020A06107202061002010BD7047704751
:101B700070B590F83C20012A26D0012480F83C4022
:101B8000022280F83D2003685A689D6822F07006A2
:101B90000A6832435A600D4B02689A4208D0B2F18B
:101BA000804F05D00A4B9A4202D00A4B9A4204D188
:101BB000496825F080031943916080F83D40002179
:101BC00080F83C10084670BD022070BD002C01401A
:101BD000000400400008004010B5040003D094F851
:101BE0003D0010B107E0012010BD002084F83C004A
:101BF000204600F01FF8022084F83D00211D2068D7
:101C000001F096F9012084F8460084F83E0084F83B
:101C10003F0084F8400084F8410084F8420084F8D2
:101C2000430084F8440084F8450084F83D00002017
:101C300010BD000008B500680B49884212D10B485E
:101C4000816941F4006181618069002200F40060D3
:101C5000009011461920FFF7C5FABDE80840192089
:101C6000FFF7B2BA08BD0000002C0140001002408E
:101C700090F83D10012901D001207047022180F821
:101C80003D100168CA6842F00102CA6000680B4951
:101C9000884208D0B0F1804F05D00949884202D06F
:101CA0000849884204D1816801F00701062903D060
:101CB000016841F00101016000207047002C0140E3
:101CC000000400400008004070B5044690F83C0055
:101CD0000025012817D0012684F83C60022084F8F2
:101CE0003D002068826822F0770222F47F42826001
:101CF0000868502838D00DDC20284FD005DC90B380
:101D0000102811D14AE0022070BD302846D040286A
:101D10000AD13BE060282FD070280DD0B0F5805F4D
:101D200003D0B0F5005F12D0012584F83D6000209B
:101D300084F83C00284670BDCB68D1E901212068B9
:101D400001F032F92068816841F0770109E0CB6841
:101D5000D1E90121206801F027F92068816841F468
:101D600080418160E1E719E0CA684968206801F0B4
:101D70002DF95021206806E0CA684968206801F002
:101D800036F96021206801F019F9CEE7CA68496880
:101D9000206801F01BF940212068F4E72268014621
:101DA0001046F0E770472DE9F04104460068C66828
:101DB00005694FF00007A90713D5B10711D5F91E22
:101DC000016101202077206880698007204602D0C9
:101DD000FFF7E8FF04E000F07EF8204600F07CF812
:101DE0002777680716D5700714D521686FF00400AF
:101DF0000861022020772068806910F4407F204627
:101E000002D0FFF7CFFF04E000F065F8204600F0B5
:101E100063F82777280715D5300713D521686FF0A9
:101E200008000861042020772068C06980072046E8
:101E300002D0FFF7B7FF04E000F04DF8204600F0B5
:101E40004BF82777E80616D5F00614D521686FF011
:101E500010000861082020772068C06910F4407FD6
:101E6000204602D0FFF79EFF04E000F034F8204641
:101E700000F032F82777E80708D0F00706D021688D
:101E80006FF001000861204600F028F8280608D508
:101E9000300606D521686FF0800008612046FFF704
:101EA00065FE680608D5700606D521686FF040000B
:101EB0000861204600F02CF8A8060AD5B00608D51F
:101EC00021686FF0200008612046BDE8F041FFF76F
:101ED0004EBEBDE8F08170477047000000680A49B7
:101EE00088420FD109484FF47A734168491C416018
:101EF00042785A4391FBF2F1002903D0002141605E
:101F00000121017070470000002C01400C000020EE
:101F10007047704710B504460068406994F8411056
:101F2000C0F3C010212911D180B12068143050E8CD
:101F3000001F21F0800140E80012002AF5D1A06BBB
:101F400008B1FEF737FE204601F009F92068406924
:101F500094F84210C0F38010222911D180B120687A
:101F6000143050E8001F21F0400140E80012002A20
:101F7000F5D1E06B08B1FEF71DFE204601F0C8F870
:101F8000002010BD70470000F8B5016804460868DD
:101F9000CA684B6910F00F0F4FF0000559D003F0DD
:101FA000010602F49077374365D0C10705D0D1050B
:101FB00003D5616C41F001016164410705D5D90782
:101FC00003D0616C41F002016164810705D5D90736
:101FD00003D0616C41F004016164010707D502F090
:101FE0002001314303D0616C41F008016164616CF0
:101FF00000293AD0800604D5900602D5204601F08B
:10200000BCF820684069616CC0F38010090700D4F7
:1020100060B3204601F07CF820684069400621D575
:102020002068143050E8001F21F0400140E8001201
:10203000002AF5D1E06BA8B16D494163E06BFEF772
:10204000DDFD002811D0E06B416B01B0BDE8F04030
:10205000084783060FD593060DD52046BDE8F84006
:1020600001F08BB82046FFF78DFFF8BD2046FFF743
:1020700089FF6564F8BD266B2023012E7CD1C6063E
:102080007AD5D60678D508684868009048694FF038
:102090000206400640D5E16B086840680004000C69
:1020A000E8D0A28D8242E5D9E085886920282DD02C
:1020B00020680C3050E8001F21F4807140E80012C5
:1020C000002AF5D12068143050E8001F21F00101EA
:1020D00040E80012002AF5D12068143050E8001FB3
:1020E00021F0400140E80012002AF5D184F8423086
:1020F000256320680C3050E8001F21F0100140E8F3
:102100000012002AF5D1E06BFEF754FD6663A08D46
:10211000E18D401A81B22AE0A08DE18D401A81B292
:10212000E08D0028A6D00029A4D022680C3252E805
:10213000000F20F4907042E80007002FF5D12068CE
:10214000143050E8002F22F0010240E80027002F51
:10215000F5D184F84230256320680C3050E8002F18
:1021600022F0100240E80023002BF5D166632046E0
:10217000FFF7CFFEF8BDFFE705062BD5150629D5DD
:1021800094F841002128F5D1A068B0F5805F01D115
:102190002069B0B1206A411C216221680078486042
:1021A000E08C401E0004000CE084E3D12068C1688C
:1021B00021F08001C1602068C16841F04001C16028
:1021C000D8E7206A0088C0F308004860206A801CB5
:1021D0002062E5E74006CDD55006CBD5CA6820463B
:1021E00022F04002CA6084F8413000F013F9C1E7E0
:1021F0001330000870B5040004D094F841000025A5
:1022000010B106E0012070BD84F84050204600F077
:1022100023F8242084F841002068C16821F400518B
:10222000C160204601F00AF82068016921F490415C
:1022300001612068416921F02A0141612068C1687B
:1022400041F40051C1606564202084F8410084F8A5
:1022500042006563002070BDF0B585B00024009495
:102260000194029403940646344F036834490222D1
:102270000320344DBB4221D18B6943F480438B61F1
:102280008B6903F4804304938B6943F004038B61EF
:102290008969039001F0040104911102CDE9001253
:1022A00069462846FEF738FE2815CDE90004694640
:1022B00028460294FEF730FE05B0F0BD224FBB4227
:1022C000FAD1CB6943F40033CB61CB6903F400331B
:1022D00004938B6943F004038B618969039001F0D7
:1022E000040104910421CDE9001269462846FEF755
:1022F00013FE0820CDE90004694628460294FEF743
:102300000BFE134D1148C5E900048020C5E90240C9
:102310002C616C61AC612846EC61FEF765FD08B18B
:10232000FEF716FCF5630022114626206E62FEF7CA
:1023300059FF2620FEF748FFBEE7000000380140A5
:102340000010024000080140004400406C000240C0
:102350007C05002090F84230202B01D002207047ED
:1023600021B11AB10023036300F0C4BF01207047FC
:10237000704770472DE9F843044690F841009846AD
:1023800016460D46202802D00220BDE8F88385B10C
:102390007EB100206064212084F84100FEF7B6FE83
:1023A000A6848146E684A0682027B0F5805F02D02D
:1023B00003E00120E9E7206910B12E4600250EE078
:1023C00000260CE08021204600F0DCFFA8B9C6B151
:1023D00016F8010B21684860E08C401EE084E08C18
:1023E0004B464FF00002CDF800800028EAD14FF0B4
:1023F0004001204600F0C6FF40B184F84170032040
:10240000C3E735F8020BC0F30800E3E784F8417036
:102410000020BAE77047FEE770B50C46054600F0AD
:1024200097F820EA04012846BDE8704000F0B8B8EB
:102430002DE9FF5F0027FE25DDF838A016468B4604
:102440008146B8460C2805D0B9F10E0F05D11227E8
:10245000102001E077273020804647F080010220DD
:1024600000F09EF880210420FFF7D6FF0021012014
:1024700000F096F880210A2000F086F8002405E09C
:102480001BF80410092000F08BF8641CB442F7D349
:102490004946012000F084F8B9F10C0F03D18021E6
:1024A0000D2000F071F8294E042000F051F8044688
:1024B000761E04D0E00702D114EA080FF4D0802180
:1024C0000D20FFF7A9FF36B1062000F041F810F00B
:1024D0001B0F0CD0FE2580210C2000F055F80021A8
:1024E000012000F05DF804B02846BDE8F09F00250B
:1024F0003C40E00700D0FF25B9F10C0FEBD10A20DA
:1025000000F026F804460C2000F022F810F0070036
:102510004FEAC40104D008390844AAF8000001E0D9
:10252000AAF8001024B1122C04D91224002603E0CA
:102530000124FBE7002605E0092000F009F80399D3
:102540008855761CA642F7D3C5E70000E093040047
:1025500070B57E2101EA40000A4D40F0800400225F
:1025600080212846FEF7CDFD204600F0DDFB00204F
:1025700000F0DAFB0446012280212846FEF7C1FD67
:10258000204670BD000C014070B50C460546FFF7B3
:10259000DFFF40EA04012846BDE87040AFF3008049
:1025A00070B50E467E2101EA4004094D00228021CB
:1025B0002846FEF7A6FD204600F0B6FB304600F0A8
:1025C000B3FB2846BDE8704001228021FEF799BD8B
:1025D000000C0140094808B5416941F00101416121
:1025E0004069002200F00100009011461020FEF723
:1025F000F9FDBDE808401020FEF7E6BD00100240DE
:102600002DE9F04385B000253B48009501950295E2
:102610000395816941F020018161816901F0200108
:102620000491816941F004018161816901F0040133
:102630000491816941F0080181618069DFF8BC8003
:1026400000F008000490012273214046FEF759FD76
:10265000DFF8AC9001224FF46F514846FEF751FD70
:1026600001247320CDE900040326CDE90246694622
:102670004046FEF751FC4FF4D050CDE90004CDE9BF
:10268000024669464846FEF747FC4FF40350CDE941
:1026900000040294694648460394FEF73DFCB003EB
:1026A000184E6946CDE9000602944846FEF734FC10
:1026B00027020097CDE9016469464046FEF72CFCED
:1026C0000097CDE90145694648460394FEF724FC8E
:1026D000002211461720FEF785FD1720FEF774FD36
:1026E000002211462820FEF77DFD2820FEF76CFD14
:1026F00005B0BDE8F0830000001002400008014072
:10270000000C014000002110104810B50E49016076
:102710004FF48271416000218160C1604FF400720A
:102720000161C0E905121822C0E9072141628162F6
:102730000A21C162FFF76CF8002803D0BDE8104001
:10274000FEF706BA10BD0000003001406400002012
:1027500010B586B0002418480094019402940394A4
:10276000049414490594C0E900144FF6FF71C0E9C0
:102770000241046144618461FFF72EFA08B1FEF75B
:10278000E7F94FF48050009069460B48FFF79CFA38
:1027900008B1FEF7DDF9049404A907480594FFF792
:1027A000E7F908B1FEF7D4F90348FFF761FA06B07C
:1027B00010BD0000002C0140BC0000200C4810B5EA
:1027C0000A4901604FF4E1314160002181600C222F
:1027D000C160C0E904128161C161FFF70BFD0028EF
:1027E00003D0BDE81040FEF7B3B910BD003801407A
:1027F000EC0400200C4810B50A4901604FF4E131A7
:102800004160002181600C22C160C0E90412816135
:10281000C161FFF7EFFC002803D0BDE81040FEF7D0
:1028200097B910BD0044004034050020FEE7FEE7E4
:1028300030B40021084B0A465FF0000003EBC004EF
:10284000401CC0B262548028F8D3491CC9B2082980
:10285000F2D330BC00F0C0B8C005002030B1012870
:1028600007D100215FF0A70000F06CB90021A6207D
:10287000FAE7704710B558B1012810D10021C020E7
:1028800000F060F90021A020BDE8104000F05AB926
:102890000021C82000F056F90021A120F4E710BD66
:1028A00030B5CC0801F0070301259D40EBB2064D81
:1028B00005EBC005C808285C0AB1184302E063EACA
:1028C0000000C043285530BDC005002010B5414C64
:1028D000002210212046FEF714FCC820FEF7EAFA79
:1028E000012210212046FEF70CFC0021AE2000F052
:1028F00029F90021084600F025F90021102000F0F8
:1029000021F90021402000F01DF90021812000F074
:1029100019F90021CF2000F015F90021A12000F0C5
:1029200011F90021C82000F00DF90021A62000F0C7
:1029300009F90021A82000F005F900213F2000F04E
:1029400001F90021D32000F0FDF80021084600F035
:10295000F9F80021D52000F0F5F80021802000F0E2
:10296000F1F80021D92000F0EDF80021F12000F06D
:10297000E9F80021DA2000F0E5F80021122000F04B
:10298000E1F80021DB2000F0DDF80021402000F01C
:10299000D9F80021202000F0D5F80021022000F015
:1029A000D1F800218D2000F0CDF80021142000F096
:1029B000C9F80021A42000F0C5F80021A62000F0ED
:1029C000C1F8FFF735FF0021BDE81040AF2000F04F
:1029D000B9B800000008014070B5114E002400BFD6
:1029E00004F1B000C0B2002100F0ACF800210846AC
:1029F00000F0A8F80021102000F0A4F85FF0000516
:102A000006EBC5000121005D00F09CF86D1CEDB2E5
:102A1000802DF5D3641CE4B2082CE1D370BD000016
:102A2000C00500202DE9FC4F1C460E4682468B4611
:102A30000190082B0DD0600700D0012000EBD400DE
:102A400061084843C0B28146203AD0B200900020CD
:102A50004BE00620F7E7082C13D00C2C18D0102CD4
:102A60001BD0182C44D10098234900EBC00000BFB4
:102A700001EB8001002711F80850E80712D00B9AEB
:102A800013E000981D4900EB400001EB4001F1E725
:102A900000981B4900EB4000EAE71A49009801EB57
:102AA0000011E7E70B9828B3002231465046FFF7A4
:102AB000F7FE761C7F1C6D08FFB2F6B2082FDCD340
:102AC0000AF1010000F0FF0A082C0AD00199AAEBD4
:102AD0000100B0EB540F04D10BF108008A4600F05E
:102AE000FF0B08F101005E46C0B280464845B2D3F4
:102AF000BDE8FC8F0122D8E7965000080A44000880
:102B000032460008A64A00082DE9F8411E4615463F
:102B100088460446079F0BE033464146204600970F
:102B2000FFF780FF082E0AD004EB5600C4B26D1CDC
:102B30002A78A2F120005E28EED9BDE8F881A41D14
:102B4000E4B2F4E770B51A4E054609B1012200E07F
:102B5000002220213046FEF7D4FA002240213046E0
:102B6000FEF7CFFA0024002201213046FEF7C9FA11
:102B7000280601D5012200E0002202213046FEF79E
:102B8000C0FA012211463046FEF7BBFA6806641C03
:102B9000050EE4B2082CE6D3012240213046FEF7B0
:102BA000B0FA3046BDE8704001222021FEF7A9BAF4
:102BB0000008014003211420FFF72EBC10B514209B
:102BC000FFF7C6FC800705D10321BDE810401420A3
:102BD000FFF7DABC10BD70B50646082188B00024A6
:102BE0000846FFF719FC00210D20FFF7D9FC8021D2
:102BF0000E20FFF711FC93208DF8040020208DF8A3
:102C0000050006A801AB0090022219460C20FFF730
:102C10000FFC05000DD1002101A8425C7254425CFA
:102C2000491C5440C9B20429F7D3405CA04200D0EB
:102C3000FE2580210E20FFF7A7FC08B0284670BDB6
:102C400030B50C460546082187B00846FFF7E4FB7F
:102C500007210D20FFF7A4FC03211420FFF794FCAB
:102C600006A801AB00908DF80450012219460C20F3
:102C7000FFF7DEFB002809D1BDF81810102905D197
:102C80009DF8041021709DF80510617007B030BDEB
:102C900010B5204C012240212046FEF732FA0220D6
:102CA000FEF708F9002240212046FEF72AFA02200A
:102CB000FEF700F9012240212046FEF722FA022009
:102CC000FEF7F8F80F210120FFF76AFC0220FEF75B
:102CD000F1F83D211120FFF763FC1E212D20FFF7A5
:102CE0005FFC00212C20FFF75BFC8D212A20FFF7E1
:102CF00057FC3E212B20FFF753FC40211520FFF706
:102D00004FFCFFF757FF0220FEF7D4F8BDE8104054
:102D1000FFF754BF000C0140704700000148FEF768
:102D200007BD00006400002001B582B00A200090B9
:102D3000012301AA02A90348FEF70CFE9DF8040036
:102D40000EBD00006400002010B5406A0021C1875C
:102D5000C186FEF7EBFC10BDF8B515460E460B46D6
:102D6000009204460122022100F010F840B93346D7
:102D7000002280212046009500F008F8002804D0A9
:102D8000606D40F0200060650320F8BD2DE9F84338
:102D90001E46914688460446089DFEF7B7F9401B3B
:102DA000351AFEF7B3F9074625480068C0F3CB3063
:102DB000684338E0701C37D0FEF7A8F9C01BA84262
:102DC00003D215B1009860B32CE02068416821F06F
:102DD000E00141606068B0F5827F0BD1A068B0F57A
:102DE000004F02D0B0F5806F04D12068016821F057
:102DF00040010160A06AB0F5005F09D12068016858
:102E000021F4005101602068016841F40051016023
:102E1000012084F85100002084F850000320BDE810
:102E2000F8830025401E00902068816838EA010080
:102E300004D000214945BDD10020F0E70121F9E788
:102E4000500000207047000000B585B000200190C0
:102E500003900A48816941F00801816180696946EF
:102E600000F0080004904FF4807000900120029060
:102E70000348FEF751F805B000BD00000010024005
:102E8000000C01400C4800B5816985B041F0080193
:102E900081618069694600F0080004904FF48070F9
:102EA0000090012001900290022003900348FEF759
:102EB00033F805B000BD000000100240000C0140D6
:102EC000FEF72AB930B58FB028216846FDF741F9E1
:102ED00014210AA8FDF73DF901210804CDE90010ED
:102EE0000024029402250491CDE907504FF4E0102C
:102EF00009906846FEF78AFA08B172B6FEE70F201D
:102F0000CDE90A054FF48060CDE90C4002210AA802
:102F10000E94FEF799F9002801D072B6FEE70FB0C3
:102F200030BD70470148FEF73EBF0000BC000020E6
:102F3000F0B50268194B1A4C1A4D4FF08047984271
:102F400005D0B84203D0A04201D0A84203D122F05C
:102F500070064A683243984205D0B84203D0A04276
:102F600001D0A84203D122F44074CA6822434C69BC
:102F700022F08002224302608A68C2620A6882628A
:102F8000984201D109690163012141610169C907C1
:102F900003D0016921F001010161F0BD002C014065
:102FA000000400400008004010B5846842EA032293
:102FB00024F47F440A432243826010BD826822F0D9
:102FC00070020A4342F007018160704710B5036A3E
:102FD000046A24F001040462846924F0F00444EAE1
:102FE000021423F00A020A438461026210BD10B584
:102FF000036A046A24F010040462846923F0A003C5
:1030000024F4704444EA023243EA0111826101620D
:1030100010BD10B5406A0021C185C184FEF7B2FF22
:1030200010BD70B5446A2068406994F84110C0F33F
:10303000C0100025212904D118B1E584204600F0F4
:103040008EF82068406994F84210C0F3801022295D
:1030500004D118B1E585204600F05AF8606C40F0C4
:10306000100060642046FEF78DFF70BD10B501466C
:10307000406A096809684FF0000289062ED4C285AB
:1030800001680C3151E8003F23F4807341E80034BB
:10309000002CF5D10168143151E8003F23F0010301
:1030A00041E80034002CF5D10168143151E8003FAB
:1030B00023F0400341E80034002CF5D1202180F8B2
:1030C0004210016B012909D101680C3151E8003F20
:1030D00023F0100341E80034002CF5D14263016B6A
:1030E000012902D0FFF744F910BD818DFEF711FFD1
:1030F00010BD10B5406A01214163016B012902D066
:10310000FFF737F910BD818D4908FEF702FF10BDAA
:1031100001680C3151E8002F22F4907241E800233D
:10312000002BF5D10168143151E8002F22F0010283
:1031300041E80023002BF5D1016B012909D1016879
:103140000C3151E8002F22F0100241E80023002B3F
:10315000F5D1202180F842100021016370470168F9
:103160000C3151E8002F22F0C00241E80023002B6F
:10317000F5D1202180F84110704708B590F8421031
:10318000222901D0022008BD82684FF480539A4260
:1031900001D1016921B1816A9A421BD04AB10AE08A
:1031A0000268816A5268C2F308020A80816A891C37
:1031B00008E0026972B10268526802F07F020A7088
:1031C000816A491C8162C18D491E0904090CC185AF
:1031D00003D01BE002685268F1E70168CA6822F078
:1031E0002002CA600168CA6822F48072CA6001685D
:1031F0004A6922F001024A61202180F84210002130
:103200004163026B012A03D0FFF7B2F8002008BD2A
:10321000016301680C3151E8002F22F0100241E8EF
:103220000023002BF5D101680A68D20602D50A688E
:1032300049680091818DFEF76CFEE7E770B50446A2
:1032400000680169E26821F440511143016121697C
:10325000A0680843616908432168CA6841F20C63A9
:103260009A430243CA6020684169A26921F440710F
:10327000114341611E492068884202D1FEF790F84F
:1032800001E0FEF77DF800EBC00101EB0012606881
:1032900064218000B2FBF0F3B3FBF1F36FF018068A
:1032A0007343B2FBF0F5B2FBF0F605EB8305322376
:1032B00003EB0515B5FBF1F5B6FBF1F605F0F005EE
:1032C00005EB0615B2FBF0F6B2FBF0F0B0FBF1F047
:1032D0006FF01802504306EB800003EB0010B0FBC8
:1032E000F1F0216800F00F002844886070BD0000F4
:1032F0000038014038B581620446828500201346BB
:103300006064222284F84220E56B1B4AAA62E56BC6
:103310001A4AEA62E56B1A4A2A63E26B50630A466C
:103320002168E06B091DFDF78DFD2068016840688C
:103330000090206948B120680C3050E8001F41F42B
:10334000807140E80012002AF5D12068143050E85E
:10335000001F41F0010140E80012002AF5D1206869
:10336000143050E8001F41F0400140E80012002AEC
:10337000F5D1002038BD00006D300008F3300008A2
:10338000233000082DE9F843984617460D460446B9
:10339000089E24E0701C22D0FDF7B8FEA0EB0800C8
:1033A000B0421AD8CEB12068C168490717D5802D20
:1033B00015D0402D13D00168C94309070FD4016807
:1033C0000025406800902046FFF7A2FE08206064B8
:1033D00084F840500120BDE8F8830320FBE7206813
:1033E000006835EA000004D00020B842D2D00020A6
:1033F000F1E70120F9E700000D4808B50068016811
:10340000C943C9060FD40168406800900848FEF718
:1034100081FD0848006840680749C0F57A70087067
:10342000064901200870BDE808400148FEF7ACBD20
:10343000340500207C0500203F00002040000020D3
:10344000FEE700000FB4054B10B503A9044A02982B
:1034500000F0FEF810BC5DF814FB0000D53D00083C
:10346000600000200FB4084B10B504A902AA03980D
:1034700000F0EEF8044602A9002000F080FC20468F
:1034800010BC5DF814FB00007F3D00080907090E21
:10349000002804DB00F1E02080F80014704700F001
:1034A0000F0000F1E02080F8141D704702E008C80A
:1034B000121F08C1002AFAD170477047002001E0AE
:1034C00001C1121F002AFBD1704700002DE9FF5FE8
:1034D00082B00021DDE90430020DDDF840B0034385
:1034E00018D044F61050A2F2FF324243151411983E
:1034F00001281FD0A5EB0B00401C5FEA000A4FF02B
:1035000000064E4FDFF83891B046504615D5CAF147
:10351000000413E0119801244AA3012801D16FEAA5
:103520000B010298119AC0E90031C0E9024206B0CD
:10353000BDE8F09FCBF10000DFE704460021404AE0
:10354000491842EB0450CDE9001012E0E00707D023
:1035500032463B4640464946FCF7ECFF80468946EA
:1035600032463B4610461946FCF7E4FF06460F4636
:103570006410002CEAD1DDE90401DDE90023BAF191
:10358000000F06DAFCF7D6FF42464B46FCF7D2FFA7
:1035900005E0FDF741F842464B46FDF73DF804468D
:1035A0000E460022284BFDF7BFF803D84FF0FF303E
:1035B000014607E00022254B20463146FCF713FF69
:1035C000FDF799F8102409E0002C0ADB0A220023F9
:1035D000FCF744FE039B30321A55641E50EA010288
:1035E000F2D1641C039AC4F111031444119A012A04
:1035F00003D0012208430DD10AE0084304D0002083
:103600004FF0110B119072E7A3EB0B056D1E0DE04F
:103610005B4504DD4FF0000205F1010504E003DA2B
:103620004FF00002A5F10105002AECD00298119993
:10363000C0E90231C0E9004579E70000000014400C
:103640000000F03F300000000000F0430000E03FC9
:103650002DE9FF4F95B09B468946064600250FE2AF
:10366000252877D100242746F84A0121059400E057
:10367000044316F8013F203B01FA03F01042F7D152
:1036800030782A2811D06FF02F033078A0F1300263
:10369000092A16D8059A44F0020402EB820203EBD1
:1036A00042021044761C0590EFE759F8042B05926E
:1036B000002A03DA504244F40054059044F0020416
:1036C000761C30782E2816D116F8010F44F0040429
:1036D0002A280DD06FF02F023078A0F13003092B8B
:1036E00009D807EB870302EB4303C718761CF3E7FF
:1036F00059F8047B761C30786C280FD006DC4C28F7
:1037000017D068280DD06A2814D104E0742810D08E
:103710007A280FD10DE044F400140AE044F4801438
:1037200001E044F440147278824202D104F580141E
:10373000761C761C307866280BD013DC582877D09E
:1037400009DC002875D04528F6D04628F4D0472853
:103750001AD19DE118E0632835D0642879D0652816
:1037600012D195E1702873D008DC6728F1D0692860
:103770006FD06E280DD06F2806D1B5E073282CD0FD
:10378000752875D0782874D05A46179990476D1CC3
:1037900075E1C4F30250022809D003280DD0D9F8EE
:1037A000001004280DD00D6009F1040967E1D9F873
:1037B0000010EA17C1E90052F6E7D9F800100D80B1
:1037C000F2E70D70F0E719F8041B8DF800100020E7
:1037D0008DF80100EA46012003E059F804AB4FF0F0
:1037E000FF3061074FF0000102D40DE008F1010144
:1037F0008846B9420FDA8045F8DB1AF8081000292C
:10380000F4D108E008F1010188468142FADB1AF898
:1038100008100029F6D105985B46A0EB0807214661
:103820003846179A00F094FA284400EB080507E0A0
:103830004DE029E10DE01AF8010B5A46179990471F
:10384000B8F10108F7D25B4621463846179A13E1D2
:1038500042E00A220092C4F302524FF0000A022A08
:1038600008D059F804CB032A4FEAEC710AD00DE0D6
:1038700029E02AE009F1070121F00702F2E802C17C
:10388000914609E00FFA8CFC4FEAEC71042A03D14F
:103890004FFA8CFC4FEAEC71002907DA0A46002146
:1038A000DCF1000C61EB02012D2202E0220504D5BF
:1038B0002B228DF80420012203E0E20701D0202210
:1038C000F7E7904659E00A2102E010220DE01021AE
:1038D0004FF0000A00910BE010224FF0000A44F074
:1038E00004040827009203E008224FF0000A009227
:1038F000C4F30252022A05D059F804CB0021032A4E
:1039000008D009E009F1070121F00702F2E802C13D
:10391000914605E01FFA8CFC042A01D10CF0FF0C43
:103920004FF00008220728D5702806D0009B83F0AE
:10393000100353EA0A0305D00EE040228DF804205C
:10394000012208E05CEA010206D030228DF8042052
:103950008DF8050002229046009B83F0080353EA8D
:103960000A030AD15CEA010201D1620705D53022BF
:103970008DF804204FF001087F1E582804D034A091
:1039800003900EA802900DE036A0F9E7534660467A
:10399000009AFCF763FC84460398825C0298401E00
:1039A000029002705CEA0100F0D1029806A9081AA0
:1039B00000F1200A600702D524F4803400E00127DA
:1039C000574502DDA7EB0A0000E0002000EB0A01EA
:1039D000009005984144401A0590E00306D45B46E8
:1039E0002146179A059800F0B3F90544002706E030
:1039F00001A85A46C05D179990476D1C7F1C47452A
:103A0000F6DBE0030CD55B462146179A059800F0DB
:103A10009FF9054404E030205A46179990476D1CE1
:103A20000099481E00900029F5DC08E002980299F0
:103A30005A460078491C0291179990476D1CBAF1BB
:103A40000001AAF1010AF1DC65E10000092801008A
:103A50003031323334353637383961626364656604
:103A600000000000303132333435363738394142C6
:103A7000434445460000000000F058F90544761C18
:103A8000307800287FF4ECAD19B02846BDE8F08FFF
:103A9000620700D4062709F1070222F0070CFCE8B0
:103AA0000223E14603F000485FEA080C02D00FF25F
:103AB000702C0DE05FEA045C02D50FF2682C07E081
:103AC0005FEAC47C02D00FF2602C01E0AFF2700C10
:103AD0004FF0FF3823F00043CDF850C065280CD0DC
:103AE00006DC452809D046281DD047283DD13DE0B9
:103AF000662818D067287ED138E00021112F01DB1D
:103B0000112000E0781CCDE9000106A90EA8FFF7FE
:103B1000DDFCDDE90F010E9A03910021009207F10F
:103B2000010A04914DE04FF000400097CDE90110EB
:103B300006A90EA8FFF7CAFCDDE90F0203920E9B4F
:103B400011990022DDF80CA00093049211B9791CA0
:103B500000EB010AB7EB0A0004D4C0F1FF3007F113
:103B6000010A0490AAEB0700019044E0012F00DA5B
:103B700001270021112F01DD112000E03846CDE999
:103B8000000106A90EA8FFF7A1FCDDE90F010E9ABE
:103B90000391002104910092BA4621070CD40399A5
:103BA000514500DA8A46BAF1010F05DD009AAAF103
:103BB0000101515C302908D0B84202DA10F1040F3B
:103BC00006DA0121CDE9011015E0AAF10101E9E7CA
:103BD000002805DC049901440491AAEB000102E0ED
:103BE000411C514500DD8A460499401A401C019051
:103BF0004FF000400290200704D40198504501DBAB
:103C0000CDF8048000208DF84F0002980DF14F0789
:103C1000B0F1004F25D02B200E9002984FF00208F3
:103C200000280CDA404202902D200E9007E00A2175
:103C30000298FCF7FDFA3031029007F8011DB8F147
:103C40000001A8F10108F2DC02980028EFD1791EEA
:103C50000E980870307800F0200040F0450007F81A
:103C6000020D12A8C01B00F107081498007800B1DB
:103C7000012000EB0A01019801EBE0710598414435
:103C8000401A401E0590E00306D45B462146179A71
:103C9000059800F05DF805441498007818B15A466C
:103CA000179990476D1CE00324D55B462146179A6F
:103CB000059800F04DF805441CE00498002807DB47
:103CC000DDE90301884203DD0098405C179901E0BB
:103CD000179930205A469047049805F10105401C79
:103CE00004900198401E019004D12E205A46179945
:103CF00090476D1CBAF10001AAF1010ADDDC05E074
:103D000017F8010B5A46179990476D1CB8F100013E
:103D1000A8F10108F4DC5B462146179A0598ABE64A
:103D20002D0000002B000000200000002DE9F041D4
:103D3000044600251E461746880404D405E039468B
:103D40002020B0476D1C641EF9D52846BDE8F081DF
:103D50002DE9F041044600251E469046C80301D5D2
:103D6000302700E02027880404D505E04146384686
:103D7000B0476D1C641EF9D52846BDE8F0810A687D
:103D8000531C0B60107070472DE9F0414FF0E02498
:103D90000546A769FDF7BAF9064605EBC500C5005B
:103DA000BD420BD9FDF7B2F9B042FBD00849781BF0
:103DB0000844A1698142FCD8BDE8F0817D1BA0695F
:103DC000A842F9D9FDF7A2F9B042F8D0F4E7000013
:103DD0004019010013B54FF0FF3301226946024834
:103DE000FEF7C8FA00981CBDEC0400202DE9F84F3E
:103DF0003AA13DA741A40FF2181A4AA60FF23819AA
:103E00000FF2481B0FF258185AA000905E48027833
:103E1000002A60D00025057009225C48FCF7A4F94F
:103E200010B95B49012008700F2239465748FCF74A
:103E30009BF928B900224FF400515648FDF761F96B
:103E4000102221465148FCF78FF9534C08B9022043
:103E50002070102251464D48FCF786F908B903201E
:103E60002070102231464948FCF77EF908B9052038
:103E70002070102249464548FCF776F908B906201B
:103E80002070102259464148FCF76EF908B9082005
:103E90002070102241463D48FCF766F908B9092018
:103EA0002070102239480099FCF75EF920B93BA038
:103EB000FFF7C8FA0A2020703A484FF47A74214676
:103EC00005703248FCF745F92246BDE8F84F2F4906
:103ED0003548FEF73FBABDE8F88F0000302C434F5D
:103EE0004E4E4543540000000D0A2B4950442C30DF
:103EF0002C353A6C61796F6E000000000D0A2B4979
:103F000050442C302C353A73657430320000000078
:103F10000D0A2B4950442C302C353A7365743033DC
:103F2000000000000D0A2B4950442C302C353A7308
:103F300065743034000000000D0A2B4950442C30C9
:103F40002C353A7365743036000000000D0A2B4999
:103F500050442C302C353A73657430380000000022
:103F60000D0A2B4950442C302C353A736574303986
:103F7000000000000D0A2B4950442C302C353A73B8
:103F80006574313000000000400000200401002072
:103F90005C000020000C01400D0000207965730DCD
:103FA0000A0000003F000020340500208EB00025EC
:103FB0005DA0069500680C905CA000680D90FDF770
:103FC000B3F8FEF77FFFFEF71BFBFEF703FBFEF7E0
:103FD0009BFBFEF7F3FBFEF70DFCFEF7B9FBFEF7CC
:103FE00075FC0020FEF73AFC0020FEF743FCFEF7CC
:103FF0001FFCFEF74DFEFEF7DDFDFEF7DFFD00F0D6
:1040000021F9FCF714FD4FF47A79494E494F012408
:10401000DFF82481FCF766FCFCF79CFD8246024633
:10402000082314210120009400F0AAF8FEF7D4FC24
:104030007068401C706090FBF9F010EB80000DD0B0
:1040400050467560FCF7C5F802460B463BA101A837
:10405000FFF708FA132101A800F0B4F8387898B1F6
:104060003B483D70DFF8ECB04FF4006A0560002279
:1040700051465846FDF745F86420FCF71BFF012226
:1040800051465846FDF73DF8102333A21E2100206B
:104090000094FEF739FD102332A22F210020009456
:1040A000FEF732FDFEF798FCFFF7A0FE98F800102F
:1040B000022906D1032188F80010FEF7B9FB00F0B1
:1040C0003BF907A95220FEF7BBFD30B1FEF7E0FD3A
:1040D000FEF770FDFEF772FD9CE706A8FEF77BFD7C
:1040E00004220CA906A8FCF73FF850B94FF6FF735D
:1040F000112220492048FEF73DF940F2DC50FCF740
:10410000D9FE04220DA906A8FCF72EF8002881D1BB
:104110004FF6FF73162219491748FEF72BF940F2A4
:10412000DC50FCF7C7FE75E743EA262D03833529EB
:10413000000000200C0000200800002074656D7055
:10414000657261747572653A25302E32660D0A000B
:1041500014000020000C014069627570726F666582
:104160006E000000393939206465726D61746974BC
:104170006973000018000020EC04002029000020D2
:104180002DE9FC4107460CA01D46006801900E4633
:10419000089C1046FCF71DF802460B4607A101A833
:1041A000FFF760F92B4601AA314638460094FEF726
:1041B000ABFCBDE8FC81000020000000252E303360
:1041C0006620430070B500259AB00C4606460A29C1
:1041D00000DA0125A4F10B00592800D2022512486B
:1041E000007800281ED034216846FBF7B2FF342146
:1041F0000DA8FBF7AEFF22460CA16846FFF732F987
:1042000005F10F024FF6FF752B4669460C48FEF785
:10421000B1F86420FCF74EFEA2B22B4631460848A6
:10422000FEF7A8F81AB070BD5C00002041542B4383
:10423000495053454E443D302C25640D0A00000082
:104240003405002070B54FF6FF752B460D221DA1D9
:104250002048FEF78FF84FF47A742046FCF72AFEC8
:104260002B4626221CA11B48FEF784F82046FCF7AB
:1042700021FE2B46082222A11648FEF77BF8A0005B
:10428000FCF718FE2B460D2220A11248FEF772F80B
:104290002046FCF70FFE2B46152220A10D48FEF705
:1042A00069F82046FCF706FE0A480068C16841F03C
:1042B0001001C16022461F490648FEF74BF8012055
:1042C00070BD000041542B43574D4F44453D320DC6
:1042D0000A0000003405002041542B43575341503D
:1042E0003D2245535038323636222C22303132337B
:1042F000343536373839222C31312C300D0A000054
:1043000041542B5253540D0A0000000041542B43DA
:1043100049504D55583D310D0A00000041542B4382
:1043200049505345525645523D312C353030300DB1
:104330000A000000040100202DE9F041DFF87C8034
:1043400086B0012688F8006010231DA200211420E9
:104350000096FEF7D9FBFEF73FFB1D4C1D4D0327D2
:1043600022781DA101A8FFF77DF8102301AA1E21C4
:1043700028200096FEF7C8FBFEF72EFB287850B1E8
:10438000022811D00128EBD12F70002188F80010ED
:1043900006B0BDE8F0812F702078401EC0B22070BA
:1043A0000228DDD20A2007E02F702078401CC0B21E
:1043B00020700A28D4D902202070D1E70000002004
:1043C00053657474696E672074696D650000000040
:1043D0000D0000200800002025303264000000009D
:1043E000010202030405060708090A0B0C0D0E0F53
:1043F0001010000000000000000001020304060786
:104400000809000000000102030400000000000091
:104410000000002F000000000700070000147F14B8
:104420007F1400242A7F2A120062640813230036B6
:104430004955225000000503000000001C224100E5
:10444000000041221C000014083E08140008083E29
:104450000808000000A06000000808080808000024
:1044600060600000002010080402003E5149453EF3
:104470000000427F40000042615149460021414511
:104480004B31001814127F10002745454539003C78
:104490004A49493000017109050300364949493646
:1044A00000064949291E0000363600000000563635
:1044B0000000000814224100001414141414000019
:1044C0004122140800020151090600324959513EA7
:1044D000007C1211127C007F49494936003E41415F
:1044E0004122007F4141221C007F49494941007F10
:1044F00009090901003E4149497A007F0808087FFF
:104500000000417F4100002040413F01007F08142E
:104510002241007F40404040007F020C027F007F2C
:104520000408107F003E4141413E007F0909090611
:10453000003E4151215E007F091929460046494944
:1045400049310001017F0101003F4040403F001F11
:104550002040201F003F4038403F00631408146390
:1045600000070870080700615149454300007F417A
:10457000410000552A552A55000041417F000004A2
:1045800002010204004040404040000001020400DB
:10459000002054545478007F484444380038444440
:1045A000442000384444487F0038545454180008CC
:1045B0007E0901020018A4A4A47C007F08040478EA
:1045C0000000447D4000004080847D00007F102872
:1045D00044000000417F4000007C04180478007C07
:1045E0000804047800384444443800FC2424241887
:1045F0000018242418FC007C0804040800485454C3
:10460000542000043F444020003C4040207C001CDB
:104610002040201C003C4030403C004428102844EE
:10462000001CA0A0A07C004464544C441414141436
:104630001414000000000000000000000000000052
:10464000FC000000000002000000000C020C020050
:1046500000000000000090D0BCD0BC90000300031C
:1046600000001824FE448C000302070201001824F5
:10467000D8B04C80000300010201C038E438E000EB
:104680000102020102020806000000000000000012
:104690000000000000F80402000000010204000213
:1046A00004F800000004020100009060F86090002F
:1046B0000000010000002020FC202000000001007C
:1046C000000000000000000008060000000020209C
:1046D000202020000000000000000000000000007A
:1046E0000002000000000080601C020004030000C3
:1046F0000000F8040404F8000102020201000008AE
:10470000FC0000000002030200001884442418008A
:1047100003020202020008042424D800010202025B
:10472000010040B088FC80000000000302003C242F
:104730002424C400010202020100F824242CC00039
:104740000102020201000C04E41C0400000003004A
:104750000000D8242424D8000102020201003844B9
:104760004444F800000302020100000010000000B1
:104770000000020000000000200000000000060011
:104780000000002050880402000000000102909008
:10479000909090000000000000000002048850206B
:1047A0000002010000001804C424180000000200E8
:1047B0000000F804E494F80001020202020000E0A4
:1047C0009CF0800002030000030204FC2424D800B3
:1047D000020302020100F80404040C0001020202B8
:1047E000010004FC0404F80002030202010004FCBE
:1047F00024740C0002030202030004FC24740C0065
:10480000020302000000F0080444CC400001020250
:10481000010004FC2020FC04020300000302040445
:10482000FC040400020203020200000404FC04046D
:1048300006040403000004FC24D00C04020302005C
:10484000030204FC04000000020302020203FC3C19
:10485000C03CFC0003000300030004FC30C4FC0463
:10486000020302000300F8040404F800010202023B
:10487000010004FC24241800020302000000F88454
:104880008404F80001020207050004FC2464980077
:10489000020302000302182424448C0003020202D3
:1048A00001000C04FC040C0000020302000004FCE4
:1048B0000000FC04000102020100047C80E01C04F2
:1048C0000000030000001CE03CE01C0000030003AB
:1048D0000000049C609C0400020300030200041C0E
:1048E000E01C04000002030200000C84641C0400AD
:1048F0000203020203000000FE020200000007049F
:104900000400000E30C000000000000102000002A0
:1049100002FE00000004040700000004020400007E
:104920000000000000000000000000000808080867
:104930000808000002000000000000000000004025
:10494000A0A0C00000010202030204FC2020C0005D
:1049500000030202010000C02020600000010202EA
:10496000020000C02024FC0000010202030200C07B
:10497000A0A0C0000001020202000020F8242404CC
:104980000002030202000040A0A0602000070A0A03
:104990000A0404FC2020C0000203020003020020DD
:1049A000E4000000000203020000000020E4000018
:1049B00008080807000004FC80E020200203020031
:1049C00003020404FC000000020203020200E020D3
:1049D000E020C00003000300030020E02020C0000E
:1049E00002030200030200C02020C00000010202F6
:1049F000010020E02020C000080F0A02010000C0D2
:104A00002020E0000001020A0F0820E040202000E2
:104A10000203020000000060A0A0200000020202C9
:104A200003000020F820000000000102020020E046
:104A30000020E00000010202030220E0208060204C
:104A40000000030100006080E080600000030003BC
:104A5000000020608060200002030003020020E0CC
:104A6000208060200808070100000020A0602000CE
:104A7000000203020200000020DE02000000000726
:104A80000400000000FF00000000000F0000000212
:104A9000DE200000000407000000020102040402FE
:104AA0000000000000000000000000000000000006
:104AB000000000000000000000F8000000000000FE
:104AC00000333000000000100C06100C060000003F
:104AD00000000000000040C07840C0784000043F63
:104AE00004043F040400007088FC08300000001833
:104AF00020FF211E0000F008F000E0180000002157
:104B00001C031E211E0000F00888700000001E21FA
:104B100023241927211010160E00000000000000A9
:104B2000000000000000000000E018040200000087
:104B300000071820400000020418E00000000040B8
:104B4000201807000000404080F080404000020232
:104B5000010F01020200000000F00000000001014E
:104B6000011F01010100000000000000000080B0F2
:104B700070000000000000000000000000000001C4
:104B800001010101010100000000000000000030EF
:104B90003000000000000000000080601804006089
:104BA00018060100000000E010080810E000000FE7
:104BB000102020100F00001010F80000000000204E
:104BC000203F202000000070080808887000003096
:104BD000282422213000003008888848300000183E
:104BE000202020110E000000C02010F80000000757
:104BF0000424243F240000F80888880808000019CD
:104C0000212020110E0000E0108888180000000FFD
:104C1000112020110E0000380808C83808000000D4
:104C2000003F000000000070880808887000001C29
:104C3000222121221C0000E010080810E0000000E2
:104C4000312222110F00000000C0C000000000004F
:104C50000030300000000000008000000000000074
:104C6000806000000000000080402010080000016B
:104C7000020408102000404040404040400004042E
:104C800004040404040000081020408000000020F8
:104C9000100804020100007048080808F000000035
:104CA000003036010000C030C828E810E0000718C6
:104CB000272423140B000000C038E0000000203C33
:104CC00023020227382008F8888888700000203FD7
:104CD000202020110E00C0300808080838000718EE
:104CE00020202010080008F808080810E000203FE5
:104CF000202020100F0008F88888E8081000203FC6
:104D000020202320180008F88888E8081000203F99
:104D1000200003000000C030080808380000071811
:104D20002020221E020008F808000008F808203F92
:104D3000210101213F20000808F808080000002098
:104D4000203F2020000000000808F8080800C0806C
:104D500080807F00000008F888C028180800203FE5
:104D600020012638200008F8080000000000203F3D
:104D700020202020300008F8F800F8F80800203F34
:104D8000003F003F200008F830C00008F808203F2E
:104D9000200007183F00E01008080810E0000F107E
:104DA000202020100F0008F808080808F000203F15
:104DB000210101010000E01008080810E0000F18B0
:104DC000242438504F0008F8888888887000203FD5
:104DD0002000030C302000708808080838000038D4
:104DE000202121221C00180808F8080818000000DB
:104DF000203F2000000008F808000008F808001F05
:104E0000202020201F000878880000C838080000F3
:104E100007380E010000F80800F80008F800033C0D
:104E20000700073C030008186880806818082030D5
:104E30002C03032C30200838C800C83808000000B4
:104E4000203F2000000010080808C838080020385B
:104E5000262120201800000000FE020202000000AF
:104E6000007F40404000000C30C000000000000007
:104E700000010638C00000020202FE0000000040EF
:104E800040407F0000000000040202020400000015
:104E90000000000000000000000000000000808012
:104EA00080808080808000020204000000000000FA
:104EB00000000000000000008080808000000019D9
:104EC000242222223F2008F8008080000000003FBA
:104ED000112020110E000000008080800000000ED4
:104EE000112020201100000000808088F800000EB2
:104EF000112020103F200000808080800000001FD3
:104F0000222222221300008080F088888818002046
:104F1000203F202000000000808080808000006B07
:104F200094949493600008F8008080800000203FF3
:104F3000210000203F200080989800000000002001
:104F4000203F20200000000000809898000000C052
:104F50008080807F000008F8000080808000203F73
:104F600024022D302000000808F800000000002076
:104F7000203F202000008080808080808000203FB3
:104F800020003F20003F8080008080800000203F84
:104F9000210000203F200000808080800000001F52
:104FA000202020201F00808000808000000080FFE3
:104FB000A12020110E000000008080808000000EE3
:104FC000112020A0FF808080800080808000202031
:104FD0003F2120000100000080808080800000339D
:104FE000242424241900008080E080800000000038
:104FF000001F202000008080000000808000001F33
:10500000202020103F2080808000008080800001D0
:105010000E300806010080800080008080800F3004
:105020000C030C300F000080800080808000002086
:10503000312E0E31200080808000008080808081B1
:105040008E70180601000080808080808000002122
:10505000302C2221300000000000807C0202000081
:105060000000003F404000000000FF000000000082
:105070000000FF0000000002027C800000000040F1
:10508000403F00000000000601010202040400008D
:105090000000000000000000000000000000000010
:1050A0000000000000000000000000000000000000
:1050B000000000000000000000000000000000F000
:1050C000F0F0000000000000000000017F0100007F
:1050D000000000000000001C1C1C0000000000007C
:1050E0008060301C8C60301C0C0000000000000050
:1050F00000000000000000000000000000000000B0
:105100000000000000E00000000000E00000008659
:10511000E69F86868686E69F860000011F010101C4
:1051200001011F010100000080C06020F820E0C0E4
:105130000000000003070C18FF70E1810000000070
:10514000070F10107F100F070000806020608000A4
:105150000000E02000000F3020309F70DC3710305E
:10516000C0000000100E0300071810180700000010
:10517000C02020E0C0000000000080E01F38E88769
:1051800003C43C040000070F1810100B070D10108B
:10519000080000808C4C3800000000000000000077
:1051A00000000000000000000000000000000000FF
:1051B00000000000000000000000000080E0300857
:1051C00004000000000000FEFF01000000000000DD
:1051D00000000000030F1820400000040830E080A9
:1051E0000000000000000000000001FFFE000000C1
:1051F0000000004020180F03000000000000000025
:1052000000000000C00000000000004266663C187C
:10521000FF183C666642000000000000030000002A
:1052200000000000000000008000000000000010EE
:1052300010101010FF1010101010000000000000DF
:10524000030000000000000000000000000000005B
:1052500000000000000000000000000000000080CE
:105260008C4C38000000000000000000000000002E
:10527000000000000000001010101010101010109E
:10528000100000000000000000000000000000000E
:10529000000000000000000000000000000000000E
:1052A00000000000000000001C1C1C0000000000AA
:1052B00000000000000000000000E0380C000000CA
:1052C000000080701C03000000000060380E010028
:1052D000000000000000000080C060202060C0804E
:1052E000000000FEFF010000000001FFFE000001C1
:1052F000070E181010180E0701000000808080C0F3
:10530000E000000000000000000000FFFF000000BF
:10531000000000001010101F1F101010000000806F
:10532000402020202060C080000000030300804057
:1053300020381F070000001C1A1918181818181F09
:1053400000000080C020202060C08000000000031A
:1053500003001010182FE780000000070F10101036
:1053600010180F070000000000000000C0E0F0006F
:10537000000000C0B088868180FFFF8080000000B0
:1053800000000010101F1F1010000000E06060609F
:1053900060606060000000003F1008080818F0E03E
:1053A000000000070B101010101C0F03000000007D
:1053B00080C040202020E0C0000000FCFF21100839
:1053C000080818F0E0000001070C18101010080F72
:1053D00003000000C0E06060606060E0600000000A
:1053E00003000000E0180700000000000000001F9C
:1053F0001F00000000000080C0602020202060C04E
:1054000080000087EF2C1818303068CF8300000729
:105410000F0810101010180F07000000C0C0202047
:105420002020C0800000001F3F604040402010FF4F
:10543000FE0000000C1C101010080F0300000000FC
:105440000000000000000000000000000000000E4E
:105450000E0E0000000000000000001C1C1C0000DC
:10546000000000000000000000000000000000003C
:105470000000000C0C0000000000000000000058BC
:105480003800000000000000000000000080402004
:1054900010000000102844820100000000000000FD
:1054A00000000000010204081000000000000000DD
:1054B0000000000000000084848484848484848448
:1054C0008400000000000000000000000000000058
:1054D00010204080000000000000000000000000DC
:1054E000018244281000000010080402010000009E
:1054F000000000C020201010101030E0C000000399
:10550000030000F010080C070300000000001C1C42
:105510001C0000000000000000C04060202020406F
:10552000C00000FCFF01F00E03C1FE03807F0001FC
:10553000070E08111110110904020000000080E09C
:10554000E000000000000000807C4340477FF880BE
:10555000000010181F1000000000131F1C1020E096
:10556000E02020202060C080000000FFFF1010100D
:1055700010182FE78000101F1F1010101010180FA8
:105580000700000080C0402020202060E00000FCD8
:10559000FF0100000000000001000001070E1810CC
:1055A00010100804030020E0E02020202040C080EC
:1055B000000000FFFF000000000001FFFE00101FC0
:1055C0001F10101018080E07010020E0E020202016
:1055D00020202060800000FFFF101010107C0000D1
:1055E0000000101F1F10101010101018060020E0EF
:1055F000E020202020206060800000FFFF101010BD
:10560000107C00000100101F1F10000000000000AF
:105610000000000080C06020202040E0000000FC6E
:10562000FF0100004040C0C140400001070E1810BB
:1056300010100F0F000020E0E0200000000020E02C
:10564000E02000FFFF101010101010FFFF00101FCF
:105650001F1000000000101F1F100000202020E07D
:10566000E020202000000000000000FFFF000000FC
:10567000000000001010101F1F101010000000008C
:105680000000202020E0E02020200000000000009A
:1056900000FFFF0000000060E0808080C07F3F00CE
:1056A000000020E0E020000020A06020200000FF9B
:1056B000FF30187CE3C000000000101F1F10000026
:1056C00001131F1C181020E0E02000000000000063
:1056D000000000FFFF000000000000000000101F9D
:1056E0001F10101010101018060020E0E0E000005D
:1056F0000000E0E0E02000FF013FFEC0E01E01FFEF
:10570000FF00101F1000031F0300101F1F1020E0D8
:10571000E0C0000000000020E02000FF0003071CA4
:1057200078E08000FF00101F100000000000030F51
:105730001F00000080C060202060C080000000FECC
:10574000FF010000000000FFFE000001070E18101E
:1057500010180C07010020E0E0202020202060C06D
:10576000800000FFFF2020202020301F0F00101F8E
:105770001F100000000000000000000080C060203A
:105780002060C080000000FEFF010000000000FF5C
:10579000FE000001070E1111133C7C67210020E080
:1057A000E0202020202060C0800000FFFF1010308B
:1057B000F0D0080F0700101F1F10000000030F1C7F
:1057C00010100080C060202020204040E000000732
:1057D0000F0C1818303060E08100001F0C0810100A
:1057E0001010180F07008060202020E0E02020200B
:1057F00060800100000000FFFF00000000010000C9
:105800000000101F1F100000000020E0E02000003A
:1058100000000020E02000FFFF000000000000006A
:10582000FF0000070F18101010101008070020606C
:10583000E0E02000000020E060200000077FF8800A
:1058400000807C03000000000000071F1C07000010
:10585000000020E0E02000E0E0200020E020000741
:10586000FFF8E01FFFFCE01F00000000031F030023
:10587000011F03000000002060E0A0000020E060A5
:105880002000000000038F7CF8C60100000000101B
:10589000181E130001171F1810002060E0E0200000
:1058A000000020E06020000001073EF8E01807003B
:1058B000000000000010101F1F10100000000080EA
:1058C0006020202020A0E0E0200000000000C0F0C8
:1058D0003E0F0300000000101C1F171010101018BE
:1058E00006000000000000FC0404040404000000A2
:1058F000000000FF00000000000000000000007F2A
:10590000404040404000000010E000000000000067
:10591000000000000000031C608000000000000088
:105920000000000000030C70800000000404040468
:1059300004FC0000000000000000000000FF000068
:105940000000000040404040407F00000000000098
:105950000010080C040C08100000000000000000FB
:105960000000000000000000000000000000000037
:105970000000000000000000000000000000000027
:105980000000000000000000000080808080808017
:1059900080808080808000000004040808000000EF
:1059A00000000000000000000000000000000000F7
:1059B00000000000000000000000000000000000E7
:1059C000000000000000000098D844642424FCF883
:1059D0000000000F1F18101010081F1F10180020C3
:1059E000E0F000000000000000000000FFFF1808C9
:1059F00004040CF8F00000001F0F18101010180F0E
:105A0000030000000000000000000000000000E0B3
:105A1000F8180404043C3800000000030F0C1010B8
:105A20001010080600000000000000000020E0F058
:105A3000000000E0F81C04040408FFFF000000035D
:105A40000F18101010081F0F0800000000000000C1
:105A50000000000000000000E0F8484444444C7896
:105A600070000000030F0C18101010080400000054
:105A7000000080C0602020E0C00000040404FFFF9C
:105A8000040404040000000010101F1F1010100078
:105A90000000000000000000000000000000000006
:105AA00070F88C04048CF874040C007076CF8D8D23
:105AB0008D89C87870000020E0F000000000000030
:105AC00000000000FFFF08040404FCF800000010C0
:105AD0001F1F100000101F1F1000000000000060BA
